:100000000C94FD0A0C94250B0C94250B0C94250BD9
:100010000C94250B0C94250B0C94250B0C94250BA0
:100020000C94250B0C94250B0C94D9190C94481A9C
:100030000C94250B0C94250B0C94250B0C94250B80
:100040000C94250B0C94DA1C0C94250B0C94250BAA
:100050000C94250B0C94250B0C94250B0C948F19E8
:100060000C94250B0C94250B0C94250B0C94250B50
:100070000C94250B0C94250B0C94250B0C94250B40
:100080000C947A1C0C94250B0C94250B0C94250BCA
:100090000C944B1D0C94250B0C94250B0C94250BE8
:1000A0000C94250B0C94250B0C94250B905E000FE3
:1000B000905C001080000F905A001080F0903E007D
:1000C0000A9040000A9041000B9043000A904700BC
:1000D0000B904A000A80F09030001F80001F903083
:1000E000001F800020902C003E9029003F80F0905F
:1000F000420003913200D3904300879042004B802E
:1001000000049043006B90420064923E0007800020
:10011000D7904091308200EF800003903E00AF9274
:100120003C00048000DD82001D903B0088810003BC
:1001300080002B902F0004913E00C481000E913B63
:1001400000C1810019903C912D00BE8000159039AE
:1001500000C880000E903B0004912B00CF8000046B
:100160009037008481004480000E9039912A00DA93
:100170008081001C901C9140014981004491400005
:100180003980002E810016901C003C800024904293
:100190000004911E011680002F810003901C00397D
:1001A0008000219043000E911F00E1810047911FC4
:1001B00000448000128100159021001291420056E7
:1001C00080000B9024005580000F9026006E92282E
:1001D000000880002A810024820016901C000E91E5
:1001E00043010C80003C810004901C0044800015F9
:1001F0009042000F911E005280007D9040003C8193
:10020000002F911C0047810024911F011A810027B3
:10021000911F004F8100159121006480000F9023F1
:10022000000781004E8000199026914000689228B6
:10023000002080003682001C901C007A81005591BD
:10024000400021800052901C810044800020901EBC
:10025000000391420117800027901C000B8100329F
:10026000800032901F9143010880002B901F0019DD
:1002700081004780000F902100079142004E8000CE
:10028000169023000B8100528000159026914000AB
:100290006B9228002080003D82000E901C00E980B7
:1002A0000059901C004780001D901E012580001CF5
:1002B000901C0039800032901F01B1800099811795
:1002C00050F000000000003E5B4F5B3E3E6B4F6B0A
:1002D0003E1C3E7C3E1C183C7E3C181C577D571C27
:1002E0001C5E7F5E1C00183C1800FFE7C3E7FF00A0
:1002F00018241800FFE7DBE7FF30483A060E2629EE
:10030000792926407F050507407F05253F5A3CE7B0
:100310003C5A7F3E1C1C08081C1C3E7F14227F2276
:10032000145F5F005F5F06097F017F006689956A41
:10033000606060606094A2FFA29408047E040810CC
:10034000207E201008082A1C08081C2A08081E10F5
:100350001010100C1E0C1E0C30383E3830060E3EAD
:100360000E06000000000000005F0000000700070C
:1003700000147F147F14242A7F2A12231308646236
:1003800036495620500008070300001C2241000097
:1003900041221C002A1C7F1C2A08083E08080080F5
:1003A000703000080808080800006060002010088D
:1003B00004023E5149453E00427F4000724949498E
:1003C000462141494D331814127F102745454539C0
:1003D0003C4A4949314121110907364949493646C4
:1003E0004949291E000014000000403400000008A4
:1003F0001422411414141414004122140802015947
:1004000009063E415D594E7C1211127C7F494949D3
:10041000363E414141227F4141413E7F4949494168
:100420007F090909013E414151737F0808087F0097
:10043000417F41002040413F017F081422417F401D
:100440004040407F021C027F7F0408107F3E4141F4
:10045000413E7F090909063E4151215E7F09192964
:1004600046264949493203017F01033F4040403F4E
:100470001F2040201F3F4038403F6314081463038F
:10048000047804036159494D43007F41414102040E
:10049000081020004141417F040201020440404015
:1004A0004040000307080020545478407F2844440B
:1004B000383844444428384444287F385454541825
:1004C00000087E090218A4A49C787F080404780020
:1004D000447D40002040403D007F10284400004102
:1004E0007F40007C047804787C0804047838444415
:1004F0004438FC1824241818242418FC7C0804040C
:1005000008485454542404043F44243C4040207C74
:100510001C2040201C3C4030403C44281028444CC7
:100520009090907C4464544C440008364100000094
:10053000770000004136080002010204023C262335
:10054000263C1EA1A161123A4040207A38545455ED
:1005500059215555794121545478412155547840B9
:1005600020545579400C1E5272123955555559393F
:100570005454545939555454580000457C41000294
:10058000457D420001457C40F0292429F0F02825D2
:1005900028F07C545545002054547C547C0A097F33
:1005A0004932494949323248484832324A4848304B
:1005B0003A4141217A3A42402078009DA0A07D39FD
:1005C000444444393D4040403D3C24FF2424487E7F
:1005D0004943662B2FFC2F2BFF0929F620C0887E6C
:1005E000090320545479410000447D413048484A71
:1005F00032384040227A007A0A0A727D0D19317D24
:100600002629292F28262929292630484D402038F7
:100610000808080808080808382F10C8ACBA2F10B6
:100620002834FA00007B000008142A142222142A1D
:1006300014089500220095AA005500AAAA55AA55AB
:10064000AA000000FF00101010FF00141414FF0097
:100650001010FF00FF1010F010F0141414FC001420
:1006600014F700FF0000FF00FF1414F404FC14143E
:1006700017101F10101F101F1414141F001010103B
:10068000F0000000001F101010101F10101010F0CC
:1006900010000000FF101010101010101010FF10AC
:1006A000000000FF140000FF00FF00001F101700F3
:1006B00000FC04F414141710171414F404F40000CC
:1006C000FF00F714141414141414F700F71414147E
:1006D000171410101F101F141414F4141010F0101D
:1006E000F000001F101F0000001F14000000FC1489
:1006F0000000F010F01010FF10FF141414FF14107D
:1007000010101F00000000F010FFFFFFFFFFF0F0CF
:10071000F0F0F0FFFFFF0000000000FFFF0F0F0FE1
:100720000F0F38444438447C2A2A3E147E020206C5
:1007300006027E027E0263554941633844443C040C
:10074000407E201E2006027E020299A5E7A5991C84
:100750002A492A1C4C7201724C304A4D4D303048A7
:10076000784830BC625A463D3E494949007E010105
:10077000017E2A2A2A2A2A44445F444440514A449A
:100780004040444A51400000FF0103E080FF000068
:1007900008086B6B083612362436060F090F060060
:1007A0000018180000001010003040FF0101001F69
:1007B00001011E00191D1712003C3C3C3C000000CA
:1007C000000006011501260137014A015D01720191
:1007D00088019F01B801D201EE010B022A024B02EF
:1007E0006E029302BA02E40210033F037003A403F3
:1007F000DC03170455049704DD0427057505C805B7
:1008000020067D06E0064907B8072D08A9082D092E
:10081000B9094D0AEA0A900B400CFA0CC00D910E72
:100820006F0F5A1053115B1272139A14D4152017BC
:100830008018F519801B231DDE1EB420A622B524C6
:10084000E4263429A72B402E0031EA330037453AFD
:10085000BC3D68414C456B49C84D68524F57805C60
:10086000006210111213151617181A1C1D1F2123D0
:100870002527292C2E3134373A3E4145494E5257CF
:100880005C62686E757B838B939CA5AFB9C4D0DC2A
:10089000E9F7080B0002020200000904000001024F
:1008A00002000005240010010524010101042402B6
:1008B0000605240600010705810310004009040114
:1008C00000020A000000070502024000000705833D
:1008D000024000000403090412010002EF0201407B
:1008E0004123368000010102030141726475696E83
:1008F0006F204C4C430041726475626F7900D5F0F3
:100900008D14A1C881CFD9F1AF20008080F8FCFE02
:10091000FEFEFEFEFCF8F0F000008080808080008B
:1009200000000000000000000000000000000000C7
:1009300000000000000000000000000000000000B7
:1009400000000000000000000000000000000000A7
:100950000000000000000000000000000000000097
:100960000000000000000000000000000000000087
:1009700000000000000000000000008000808000F7
:100980000000F0F8FCFCFEFEFEFEFCF8F8FFFFFFA6
:10099000FFFFFFFFFFFFFFFFFEFFFFFFFFFFFFFE69
:1009A000ECE0E0F0C0C0E080000000000080F0FC5F
:1009B000FFFFFF878787C7FFFFFFFE78000080E00B
:1009C000FCFEFF7F0F1F7FFFFCE0E00000FCFEFE4F
:1009D000FFFFE78787879F3F3E3E1C001FFFFFFF0B
:1009E000FFC08080808FBFFFFFFFFC808000000081
:1009F000008080C0C0C0F0E0ECECFEFFFFFFFFFF16
:100A0000FEFEFFFFFFFFFFFFFFFFFFFFFF010141B2
:100A10008101418101018101814101010100004108
:100A200091014190000090000080E0F8FEFFFF7F00
:100A30000F070707C7FFFFFFFEFC3800F8FEFFFFA8
:100A40007F1F1F1E1E1E1EFFFFFFFFF800E0E1E1DB
:100A5000E3E7C78787878FFFFFFEFCF8F803FFFFF8
:100A6000FFFFFF87070707071F7FFFFFFFFEE080ED
:100A700000000090000111810101008040019101FE
:100A80004191010191010191010191410100043263
:100A900084002290002090002412922400902012C2
:100AA000840012C4C0C0C0CCC8CFCFCFCF8F0F0F2F
:100AB0000FCFCFCFCF0F070101C0C0CFCFCF0F8F48
:100AC000C0C0C0C0C0C0C0CF8F8F0F0F00C1C1C792
:100AD000CFCFCFCFCFCF8F0F0F0F03C1C0C0800FAD
:100AE000CFCFCFCFC0C0C0C0C0C0010F8FCFCFCF3E
:100AF000CCC0C0C4C0C0C410040290240290240220
:100B000092240092240092240000249000C0C0C9C6
:100B10000400490000094080494082010012C1F0F0
:100B2000F0FFFFFFFFE7E3E3E3FFFF7F3F1F0FE07F
:100B3000FEFFFFFF0F000000E0FFFFFFFF0380FF4D
:100B4000FFFFFF03030307FFFFFFFFFE00FFFFFFA1
:100B5000FFFF03030707FFFFFEFE003FFFFFFFE06D
:100B600007FFFFFFFFE3E3E3E3E380000F3F7F7F47
:100B7000FFF3F3E3E7E7E7C7C78080090096490082
:100B800092490094490000490000C994C0FFFFFF4A
:100B9000FFFFFAF1E0801008201208E0F0FEFFFFEE
:100BA000FFC7C3C3C3E3E3FFFFFF7F3F00F0FFFFC7
:100BB000FFFFDFC0C0C0F0FEFFFFFF7F0380FFFF2D
:100BC000FFFFFFC0C0C0F0FFFFFFFF7F00FFFFFF80
:100BD000FFFFC0C0C0E0FFFFFFFF7C003FFFFFFF43
:100BE000F8001FFFFFFFFFC3C3C3C3C0C0C0C010D6
:100BF000F0F0F3F3E3C3C3C7C7FFFFFFFEF8F20053
:100C00002492000092FCFCFEFFFFFFFFFFFFFFFFAE
:100C1000FFFFFFFFFFFFFE0000568707478707071C
:100C200087070707070703030100400000030707C2
:100C30000707070707070707030101000007070762
:100C40000707070707070707030301000007070750
:100C50000707070707070707030100000007070743
:100C6000070700070707070707070707070707041E
:100C70000000030307070707070707070783500854
:100C80009870FEFEFFFFFFFFFDFFFFFFFFFFFFFF6E
:100C9000FFFFFF3F3F176FA480D2C4D0D2E4DAC079
:100CA00024D2006592004DB2004D320049B22008B6
:100CB00040200048200048A00048F000484000487C
:100CC00000204000B04800B04800A04800B04800F4
:100CD000B0480040200048200048A00048A000483C
:100CE00020004800204800204800204800224900F9
:100CF000224D00324500D2E480A2C4DAC0C4DAC07A
:100D0000E49263671F7FFFFFFFFFFFFFFFFFFFFF0F
:100D1000FFFFFFFFFFFFFEFFFFFFFFFFFFFFFFFFE4
:100D2000FFFEFEFDF9F0F2ED00D26D01D27D6DD235
:100D3000D2E9C0D2EDC0D26D00DBF640D9B2E8DB1B
:100D4000B4EDD2A9EDD2A0ADD2A0A5DA002DD2800B
:100D5000ADDA80EEDB80B2C980D26DE892CDC8D228
:100D6000D7D0FAC8C9F2E9E9D2C0ED92804DB200FD
:100D700049B2B0EDFAFCFDFEFFFFFFFFFFFFFFFFF2
:100D8000FFFFFEFEFFFFFFFFFFFFFFFFFFFFFFFF75
:100D9000FFFFFFFFFFFFFFFFFFFFFFFFFFFDFFFF65
:100DA000FFFFFFFFFFFFFFFFFF7F1F0F0F07031175
:100DB00011797979F9FFFFFFFEFEFDF6FFEDBEFF29
:100DC000FDBFFFBDFFFEA3C13CFEFEFCFC7D3C3D24
:100DD0001D42BFFDFEB6FDFFF6FFFFFEFFFFFFFF5A
:100DE0000FFF87030303FFFF07071F1F1F1F1F7E40
:100DF0007EFFFFFFFFFFFFFFFFFFFFFFFFFFFFFF84
:100E0000FFFFFFFFFFFFFFFFFFFFFFFFFFFFFFFFF2
:100E1000FFFFFFFFFFFFFFFFFFFFDFFFFFFFFFFF02
:100E2000FFFFFFFFFF0F030100000000000000FCB8
:100E3000FC000000FD0707FFFFFFFFFFFFFFFFFFB4
:100E4000FFFFFF7D9FE77B7C9FEEE7FBF9F1C898F2
:100E5000900000877FFFFFFFFFFFFFFFFFFFFFFF07
:100E6000FEFC0CF8F8FC0C0DFCFCFCF8C080E0F07B
:100E7000F0F00003FFFFFFFFFFFFFFFFFFFFDFFFBB
:100E8000FFFFFFFFFFFFFFFFFFFFFFFFFFFFFFFF72
:100E9000FFFFFFFFFFFFFFFFFFFF1F0F0F07C1C196
:100EA000C1C1C101010100000000000000000003F9
:100EB0000300006063F0FCFFFF870701001E1E0EA9
:100EC0006E606B6B790EFFFFFFFFFFFFFFFFFFFF01
:100ED000FFFF3E086868616E0E0F1F1EC0C1070746
:100EE000FFFFF8F7EFEF9EDEDF1F9F8F8F83C1C1FB
:100EF00071F8FC3939B939DDDDFDFD87070F1FFFBA
:100F0000FFFFFFFFFFFFFFFFFFFFFFFFFFFFFFFFF1
:100F1000FFFFFFFFFFFFFFFFFFFFC0000000030315
:100F2000073F3F879E1E20383838383838383838E1
:100F300038F8F8E0C2C3838080C0C0C0C0C0C0CF52
:100F4000CFCFCFE7E7F8FFFFFFFFFFFFFFFFFFFF78
:100F5000FFFFF8F8E7EFCFCFCFC7C03037878C8CD3
:100F60008E888FC7C3E3F8F767676666666767674B
:100F7000666060009E07FF7F7F0F03010000C0C115
:100F8000FFFFFFFFFFFFFFFFFFFFFFFFFFFFFFFF71
:100F9000FFFFFFFFFFFFFFFFFFFFFFFFFFFE7E7E64
:100FA0001E0F0F03010080E0F0F0F8F8F8F8F8E009
:100FB000600001010107077F7F7FFFFFF3F3FFFF61
:100FC000FFFFFFFFFFFFFFFFFFFFFFFFFFFFFFFF31
:100FD000FFFFFFFFFFFFFFFFFFFFFFFFFFFFFF7FA1
:100FE000FFFF83FFFF8703016060F8F8F8F8F8F867
:100FF000FCECB878E1E1830F0E1E7EFEFEFFFFE7FA
:10100000E7FFFFFFFFFFFF7FFFFFFFFFFF073F0738
:101010001F5F47470787073F0F5F474727249C9C71
:101020001C5C4424243D0DFF1F07070787BF0717DB
:101030005C5C4424241C9C0404040405251F1F0735
:101040000707070757071F1F0707071F1F9FDF1FF8
:10105000070707071F07070707871F071F1C052527
:10106000252585841C1C544424242F9F9F1F07077B
:1010700087FF05BD3D1D454404040C1C1C5F47272C
:1010800027270F9F1F07070707073F475F0000003D
:101090000004040400010000000000000000010141
:1010A00000000002020000000113020E0101010015
:1010B000000000000200010000000000000000002D
:1010C00000000000000000000000000A0101000014
:1010D000000000010001000000000000000000000E
:1010E00000000101010000000002000101020E12D7
:1010F00011010101020202000000010000000000D5
:1011000000020001010404040200000000904000FD
:1011100073903400739032007490340073904000E8
:1011200073903400749032007390340074904000D7
:1011300073903400739032007490340073904000C8
:101140007390340074903200739034007490409126
:101150004C007390348100739032007490340073AB
:101160009040914F00749034914C00739032914AAA
:1011700000739034914700749040914C0073903408
:10118000914A0073903291470074903491430073F8
:1011900090408100749034914300739032007390BA
:1011A00034914500749040914C00739034810074E8
:1011B00090320073903400739040914F00749034DB
:1011C000914C00739032914A0073903491470074AF
:1011D0009040914C00739034914A00749032914742
:1011E0000073903491430073904081007490349167
:1011F0004300739032007490349145007390409195
:101200004C007390348100749032007390340073FA
:101210009043914F00749040914C0073903E914ADE
:101220000074903B914700739040914C0073903E46
:10123000914A0074903B914700739037914300743A
:1012400080810073903791430073800074903991CE
:101250004500739040914C0073903481007490323B
:101260000073903400749043914F00739040914C00
:101270000073903E914A0074903B914700739040F8
:10128000914C0074903E914A0073903B91470073DB
:1012900090379143007480810073903791430073BD
:1012A000800074903991450073903791400074909C
:1012B00034914000739032913E007390349140001D
:1012C0007490379143007390349140007490329140
:1012D0003E007390349140007390379145007490B4
:1012E00034007390329147007390349143007490AE
:1012F0003700739034914000749032913E007390A7
:1013000034913B00739037914000749034914000C9
:10131000739032913E0074903491400073903791F5
:101320004300739034914000749032913E0073906A
:10133000349140007390379145007490349143008C
:10134000739032914000749034913B0073903791C8
:101350003E007390340074903291400073903400DA
:10136000749037914C00739034914C00739032918B
:101370004A00749034914C00739037914F007390F1
:1013800034914C00749032914A00739034914C0027
:1013900074903791510073903400739032915300E0
:1013A000749034914F0073903700749034914C00D6
:1013B000739032914A007390349147007490379142
:1013C0004C00739034914C00739032914A007490A9
:1013D00034914C00739037914F00749034914C00CD
:1013E000739032914A00739034914C00749037910D
:1013F0005100739034914F00739032914C0074906F
:1014000034914700739037914A0074903400739080
:1014100032914C0073903400749051810073904C61
:101420000074913990450073904F810073904A0089
:101430007491379043007390518100739139904AB1
:1014400000749134904C0073913490470074913241
:10145000904E00739134904700739137904F007411
:1014600091349050007391329053007491349055A0
:1014700000739051810073904C0074913990450035
:1014800073904F810073904A0074913790430073BA
:1014900090518100749139904A00739134904C00BE
:1014A000739134904A007491329047007391349054
:1014B00046007491379045007391349044007391C5
:1014C0003290400074913400739051810073904CBD
:1014D0000074913990450073904F810074904A00D8
:1014E0007391379043007390518100749139904A01
:1014F00000739134904C0074913490470073913292
:10150000904E00739134904700749137904F007360
:1015100091349050007391329053007491349055EF
:101520000073904A8100749132904A007391319017
:101530004A00739132904A0074904C810073913448
:10154000904C00749132904C00739134904C007325
:10155000904F8100749137904F00739136904F00F7
:10156000739137904F00749051810073904F0074C5
:10157000904C0073904A0073904C00E780F000009C
:10158000000200090F0000030401000C000000002D
:10159000000000000000000000000000000000004B
:1015A00000250028002B002E003100000000002440
:1015B0000027002A002D0030000404040404030462
:1015C00005020202020403020202020606060606E1
:1015D00006040402020204040408020110408040D0
:1015E0001020408040800802040180402010020149
:1015F00010801020404020009D1E11241FBECFEF00
:10160000DAE0DEBFCDBF11E0A0E0B1E0E6E6FDE448
:1016100002C005900D92A03EB107D9F728E0A0EED8
:10162000B1E001C01D92AA34B207E1F71AE0CDEF94
:10163000DAE004C02197FE010E94AB26CC3FD1071F
:10164000C9F70E94CC1E0C94B1260C940000809126
:101650004702089590E0FC01E852FA4E2491875425
:101660009A4EFC018491882399F090E0880F991F8D
:10167000FC01E555FA4EA591B491FC01E356FA4EF2
:10168000859194918FB7F894EC91E22BEC938FBFF6
:1016900008959091E7078091E6072FEF3FEF9817A5
:1016A00048F4E92FF0E0EA53F84F208130E09F5FE3
:1016B0009093E707C90108959091E7078091E607A5
:1016C0002FEF3FEF981748F4E92FF0E0EA53F84F77
:1016D000208130E09F5F9093E707C9010895480F8C
:1016E000592F511D1416150684F5803891056CF597
:1016F00097FF02C090E080E04138510514F040E8C7
:1017000050E0481BFB01E770FF2721E001C0220FDA
:10171000EA95EAF777FF02C0695F7F4FFB0133E08C
:10172000F595E7953A95E1F7F695FE2FEE27F795B3
:10173000E795E80FF91FEA53FC4F415030F08191D3
:10174000DF011197822B8C93F8CF0895FC018091D3
:101750007503882311F13FB7F89482E08093E90084
:101760002091F200822F90E01816190614F481E0FF
:1017700090E0882339F0289844E640937403409120
:10178000F1004083222339F02091F200211103C09F
:101790002BE62093E8003FBF08958FEF9FEF089559
:1017A0002FB7F89483E08093E9009091E800892FA7
:1017B000807295FF04C09091F20080E4891B2FBFD6
:1017C000089580916C0381110DC082E080936803BD
:1017D00084E08093690310926B0310926A0381E0A6
:1017E00080936C0388E693E00895282F30E0F90198
:1017F000E258FA4E9491F901E852FA4E8491275436
:101800003A4EF9012491222309F430C09923E9F0DA
:1018100091509F30D0F4E92FF0E0EF5EF34F0C943D
:10182000AB263F0C430C200C370C3B0C250C250C35
:10183000250C460C4C0C500C540C5A0C250C5E0C10
:10184000909180009F7790938000E22FF0E0EE0F60
:10185000FF1FE356FA4EA591B4919FB7F894EC910F
:10186000611132C080958E238C939FBF0895909113
:1018700080009F7DE8CF90918000977FE4CF94B562
:101880009F7794BDE2CF94B59F7DFBCF9091900060
:101890009F7790939000D9CF909190009F7DF9CF42
:1018A00090919000977FF5CF9091C0009F77909393
:1018B000C000CBCF9091C0009F7DF9CF9091C20026
:1018C000977F9093C200C1CF8E2BCECFFC010E9498
:1018D0007A0C319728F068517C4F8F4F9F4FF9CF8A
:1018E000AB01FC010E947A0C641775078E079F07F5
:1018F000C8F30895A4E6B3E02FB7F8947D918D91D5
:101900009C9166B52FBFA89B05C06F3F18F47F5F01
:101910008F4F9F4F22E0660F771F881F991F2A95D0
:10192000D1F708950895CF93DF93AC01E09152026F
:10193000F09153023097F1F09091E7078091E6071C
:101940009817C0F090E0292F30E02617370754F49D
:10195000D901AA53B84F240F351FE90128812C93D0
:101960009F5FF1CF1092E7076093E607CB01DF910D
:10197000CF910994DF91CF91089540914102509108
:10198000420220913F023091400242175307B4F4C3
:101990009091E8009570E1F39091E80092FD19C0F4
:1019A0008093F100809141029091420201968F73E1
:1019B0009927892B19F48EEF8093E80080914102DA
:1019C000909142020196909342028093410281E0FD
:1019D000089580E00895DF92EF92FF920F931F9396
:1019E000CF93DF93D82E8A01EB017B01E40EF51E25
:1019F000CE15DF0559F0D7FE12C0FE0184910E947A
:101A0000BD0C21968111F4CF0FEF1FEFC801DF91BC
:101A1000CF911F910F91FF90EF90DF9008958881F3
:101A2000EECF0F931F93CF93DF931F92CDB7DEB707
:101A300082E0898342E450E062E978E080E80E9435
:101A4000EB0C0E94E10BDC0112960D911C9101152B
:101A5000110589F0D801ED91FC910280F381E02D10
:101A6000BE016F5F7F4FC801099597FD04C0F80163
:101A700000851185ECCF89810F90DF91CF911F9167
:101A80000F910895615030F02091F100FC01208306
:101A90000196F8CF289884E6809374030895AF9256
:101AA000BF92CF92DF92EF92FF920F931F93CF934B
:101AB000DF936C017B018B01040F151FEB015E01AD
:101AC000AE18BF08C017D10759F06991D601ED9142
:101AD000FC910190F081E02DC6010995892B79F7E1
:101AE000C501DF91CF911F910F91FF90EF90DF9093
:101AF000CF90BF90AF9008958F929F92AF92BF9278
:101B0000CF92DF92EF92FF920F931F93CF93DF93C9
:101B10006C017B018A0180910B01882309F45AC072
:101B200080917503882309F455C08091450280FF98
:101B300005C08091E00082608093E000E801B12C54
:101B40008AEFA82E93E0892E2AE3922E209711F493
:101B5000BB20C9F10E94D00B811108C0AA94AA2011
:101B6000C9F181E090E00E94660CF0CF8C171D0651
:101B700011F00CF08C2F9FB7F8948092E90020911F
:101B8000E80025FD02C09FBFE1CF282F30E0C21B37
:101B9000D30BF701815020F041914093F100FACF2F
:101BA000E20EF31EBB2021F09092E800B12CEBCFA7
:101BB0008091E80085FDE7CF9092E800BB24B394C4
:101BC000209709F3F3CF5D9884E6809344021016C2
:101BD00011063CF081E090E0F6019383828310E0EF
:101BE00000E0C801DF91CF911F910F91FF90EF901E
:101BF000DF90CF90BF90AF909F908F900895CF933C
:101C0000DF931F92CDB7DEB76983DC01ED91FC91C4
:101C10000280F381E02D41E050E0BE016F5F7F4F15
:101C200009950F90DF91CF91089583E08093E900AB
:101C30008091F200882319F08AE38093E8000895E8
:101C40000E94D00B90E00895CF93DF931F92CDB701
:101C5000DEB7FC018485958597FD08C02FEF3FEF27
:101C6000358724870F90DF91CF910895CE0101969B
:101C70000E94A60B019719F4898190E0F3CF8FEFB2
:101C80009FEFF0CF0F931F93CF93DF931F92CDB7AA
:101C9000DEB78C01FC018485958597FF0BC0CE01D2
:101CA00001960E94A60B019771F4898190E0F801DA
:101CB00095878487F801848595850F90DF91CF9172
:101CC0001F910F9108958FEF9FEFF1CFFC01848555
:101CD000958597FD0BC09FB7F89482E08093E9004B
:101CE0008091F2009FBF90E0019608959FB7F8940D
:101CF00082E08093E9008091F2009FBF90E0089518
:101D0000CF92DF92EF92FF921F93CF93DF93E82F52
:101D1000F0E0E05CFE4F1081E62FF0E0603398F5D4
:101D2000EE59F74FE491CE2FD0E0F12CE12C60E09A
:101D300074E284EF90E0A7019E010E945424215098
:101D400031094109510991E02115310581E0480728
:101D500051056CF060E970ED83E090E0A7019E0111
:101D60000E945424215031094109510993E0113056
:101D700089F0133039F1DF91CF911F91FF90EF90EF
:101D8000DF90CF900895EE0FFF1FEE59F84FC591E9
:101D9000D491CBCF80913E028111EDCF8091810013
:101DA000887F892B8093810030938900209388005D
:101DB000109285001092840080916F008260809361
:101DC0006F00D9CF80919100887F892B80939100FB
:101DD00030939900209398001092950010929400EF
:101DE000D0933D02C0933C0281E080933B028091FE
:101DF0007100826080937100BECFE82FF0E0E05C5C
:101E0000FE4F8081813019F08330A9F008958091D0
:101E10003E0281110FC080916F008D7F80936F0013
:101E200080912D02E0912B02F0912C0290818095FF
:101E300089238083089510923B0280913A02811198
:101E4000F9CF80913802E0913602F0913702EECF5F
:101E5000CF93DF93D1E0E0914802F0914902AF01C6
:101E60004F5F5F4F50934902409348022491822F65
:101E7000807FC22FCF70803821F48C2F0E94FD0EFE
:101E8000EACF803919F5E0914408F09145080995A9
:101E90008D2780933902E0914802F0914902CF01E9
:101EA00001969093490280934802649180914D027B
:101EB000C81788F6C13021F480912A028111CBCF56
:101EC00067FDC9CF8C2F0E94800EC5CF87FD3CC017
:101ED0003296F0934902E0934802FA014491A091AE
:101EE0003C02B0913D02322F242F0E94A8246C5056
:101EF0007E4F8F4F9F4F28EE33E040E050E00E942E
:101F0000862420933202309333024093340250935C
:101F100035028091320290913302A0913402B09147
:101F20003502892B8A2B8B2B61F481E090E0A0E0B5
:101F3000B0E08093320290933302A0933402B093C6
:101F40003502DF91CF910895803E49F480914A0295
:101F500090914B0290934902809348027CCF803F3E
:101F600009F079CF10924C02ECCF90914D02923053
:101F700009F471C0292F30E0F901E05CFE4F408187
:101F8000285D3D4FF9018083913031F42091280282
:101F9000281302C090932A029F5F90934D0290E015
:101FA000FC01E754FA4E249188529A4EFC01849128
:101FB00030E0220F331FF901E356FA4E6591749118
:101FC000F901E555FA4EA591B4919C91982B9C93FB
:101FD000413019F04330D9F0089590916400977F13
:101FE0009093640010928000109281009091810083
:101FF000986090938100909181009160909381000E
:1020000070932C0260932B0280932D02089590917F
:102010006500977F90936500109290001092910058
:1020200090919100986090939100909191009160AF
:102030009093910070933702609336028093380238
:1020400080914D02882321F06CE380E00E94800E95
:1020500080E00C94FD0E089520910502260F332791
:10206000331F21323105ECF420919C03FC0190E0F8
:1020700080E0243069F082E00895A091050221916A
:10208000AC014B515E4FA40FB52FB11D2C9301969F
:10209000861798F380910502680F6093050280E02F
:1020A000089581E0089510929C0381E080939B0342
:1020B0001092760361E082E00E94F50B61E083E01C
:1020C0000E94F50BE9EBF0E080818E7F80838081B8
:1020D0008D7F808388E48093B80085E48093BC0082
:1020E0000895CF93DF9391E09093E4018823B9F0B2
:1020F000C091B800D091BA008091BC008A7B8093D7
:10210000BC0060E082E00E94F50B60E083E00E948A
:10211000F50B0E945310D093BA00C093B800DF9122
:10212000CF910895CF92DF92EF92FF920F931F937A
:10213000CF93DF93D091C50381E0D13208F09CC0EA
:10214000C091C4030E947A0C6B017C0180919C03B6
:1021500081116CC082E080939C0381E080939B039B
:102160008FEF80939A0310929903D0939803A4EA77
:10217000B3E0E8E7F3E080E0D8138DC01092770376
:1021800080917703CC0FC82BC0937703809176039F
:10219000813009F084C0109276030E947A0C6B01A2
:1021A0007C01809177038093BB0080919E03909186
:1021B0009F03A091A003B091A103892B8A2B8B2BA5
:1021C000A1F00E947A0C00919E0310919F03209130
:1021D000A0033091A1036C197D098E099F09061790
:1021E00017072807390708F442C08091BC0083FD17
:1021F000D8CF85EC8093BC000E947A0C6B017C01E7
:1022000080919C03823009F44CC080919A038F3FE7
:1022100009F469C080919A03803209F466C0809104
:102220009A03803309F463C084E026C080919E0342
:1022300090919F03A091A003B091A103892B8A2BB9
:102240008B2B09F483CF0E947A0C00919E0310918E
:102250009F032091A0033091A1036C197D098E0981
:102260009F09061717072807390708F06FCF8091D5
:102270009D030E94711085E01092A3031092C50384
:102280001092A203DF91CF911F910F91FF90EF90D9
:10229000DF90CF9008959D9191938F5F6DCF85EEE4
:1022A000A9CF80919E0390919F03A091A003B0912C
:1022B000A103892B8A2B8B2B09F4A2CF0E947A0CC5
:1022C00000919E0310919F032091A0033091A103E0
:1022D0006C197D098E099F0906171707280739070A
:1022E00008F08ECFC4CF80E0C7CF82E0C5CF83E0B7
:1022F000C3CF0895E091E7078091E607E81730F42F
:10230000F0E0EA53F84F808190E008958FEF9FEF5F
:1023100008958091E6079091E707891B990B08952E
:10232000CF92DF92EF92FF920F931F93CF93DF93A1
:102330007C01CB018A012091A203222389F0EB01C9
:102340006B01C40ED51ECC15DD0569F06991D7016E
:10235000ED91FC910190F081E02DC7010995F3CF3B
:10236000642F0E942C10C801DF91CF911F910F9113
:10237000FF90EF90DF90CF900895CF93DF931F925F
:10238000CDB7DEB769832091A2032223F9F0209113
:10239000C503203258F021E030E0FC013383228372
:1023A00090E080E00F90DF91CF9108958091A3039A
:1023B000E82FF0E0EC55FC4F998190838F5F80937C
:1023C000A3038093C50381E090E0ECCF61E0CE01F0
:1023D00001960E942C10F7CF682F88E398E00C94A8
:1023E000BD1190E00C94660C8FB18095807F669B48
:1023F00088601C9B8460089590E1282F81E061FD36
:1024000084E060FD880F62FD8295687F969FD00111
:102410001124A20FAA53BC4F0C90082A40FF082693
:102420000C92089590E0E6ECF3E091119FEF8FEFAE
:1024300091939193919391938150D0F71092590277
:102440001092580210925B0210925A0208952F9235
:102450003F924F925F926F927F928F929F92AF9234
:10246000BF92CF92DF92EF92FF920F931F93CF9381
:10247000DF9300D000D01F92CDB7DEB76D30C9F02A
:1024800040900C016090580270905902042D10E0A9
:102490006A3049F510925B0210925A0283E0000FF5
:1024A000111F8A95E1F7600E711E709259026092B9
:1024B000580281E090E00F900F900F900F900F90D6
:1024C000DF91CF911F910F91FF90EF90DF90CF9010
:1024D000BF90AF909F908F907F906F905F904F9044
:1024E0003F902F90089520905A0230905B02E5E0D3
:1024F0006E9FC00111248E539D4F9D838C8361017B
:10250000512CF5E05F1651F18C819D810196EC8193
:10251000FD81F491F9839D838C83430128E02A8314
:10252000898181708B8376018E2D8C198415E0F45E
:10253000B12CA12CA414A0F490E8E916F10450F4F5
:10254000B4016A0D7B1D6034710520F44B81C70115
:102550000E94FC11EFEFAE1ABE0AECCF1982DDCF5C
:10256000FFEFEF1AFF0AE0CF2981269529838A81A0
:1025700081508A83800E911E8111D2CF5394C00E58
:10258000D11E96E05912BDCFC101459C800D911D11
:10259000112490935B0280935A028BCF9091E301B8
:1025A000982329F49091E201982381E009F480E0D6
:1025B00008958091E2018093E3010E94F4118093D9
:1025C000E2010895E6ECF3E080E0A0E0B8E00080EE
:1025D0000EBC8111012C1197A0FDFDCF0192B9F71E
:1025E0000DB40895DF92EF92FF920F931F93CF9354
:1025F000DF937C01D22E8B01040F111DEB0177FFBD
:1026000002C0D0E0C0E0C8010134110514F080E43C
:1026100090E0C817D9075CF480E8E816F10428F4C4
:102620004D2DBE01C7010E94FC112196ECCFDF9118
:10263000CF911F910F91FF90EF90DF900895CF926F
:10264000DF92EF92FF920F931F93CF93DF936B0173
:10265000122FEC017C01E40EF11CCE15DF0544F4D1
:10266000202F412FB601CE010E94F2122196F5CF04
:10267000DF91CF911F910F91FF90EF90DF90CF905E
:102680000895AF92BF92CF92DF92FF920F931F9364
:10269000CF93DF93EC01EA81FB81C880D9808D89DB
:1026A000882309F475C080915402909155026CE31F
:1026B00070E00E9483264E9708F06AC0BF016F5FEA
:1026C0007F4F01E027E048E0C6010E941F138F857D
:1026D000882361F06A817B816F5F7F4F8881998158
:1026E00000E026E046E001960E941F134E895F89B4
:1026F0004115510509F442C025E030E0241B350B9B
:102700008BE090E0841B950BF82EFF0CCA80DB80D9
:1027100082E0C81AD108C21AD30A0881198102506E
:102720001109021B130B80E4C816D10428F44F2DA5
:10273000B601C8010E946F0BAF2CB12CB6016A0D17
:102740007B1D615071096034710520F44F2DC80163
:102750000E946F0B21E04F2DB601C8010E94F212BA
:10276000C8018A0D9B1D21E04F2DB60101970E94E3
:10277000F2128E899F8901979F8B8E8BDF91CF916B
:102780001F910F91FF90DF90CF90BF90AF90089571
:1027900001E028E048E0BF0197CF2F923F924F928F
:1027A0005F926F927F928F929F92AF92BF92CF92E1
:1027B000DF92EF92FF920F931F93CF93DF9385E009
:1027C000C82ED12C9091E6078091E707981709F45D
:1027D000D5C00E945C0B811152C080913A0190914A
:1027E0003B01C6E4D3E0019711F4CEE2D3E00E94AE
:1027F0005C0BB82E0E945C0B412C84299B29998389
:1028000088830E945C0BB82E0E945C0B612C862989
:102810009B299B838A830E945C0B682F880F770B10
:10282000880B990B0E9461256C837D838E839F8327
:102830000E945C0B682F880F770B880B990B0E9406
:102840006125688779878A879B870E945C0B21E0D6
:10285000892B09F420E02F870E945C0B21E0892B53
:1028600009F420E02A8B0E945C0B9D878C870E94D4
:102870005C0B21E0892B09F420E02D8BA3CF813064
:10288000D1F50E945C0B0E945C0B282E0E945C0B11
:10289000382E0E945C0B5C0180903A0190903B01C5
:1028A000CEE2D3E081E08816910411F4C6E4D3E0CF
:1028B000622D220C770B880B990B0E9461256C838B
:1028C0007D838E839F83632D330C770B880B990B4D
:1028D0000E946125688779878A879B87BD86AC8639
:1028E000EEE2F3E082E08816910411F4E6E4F3E00E
:1028F000D78AC68A67CF823009F064CFCEE0D1E0B4
:10290000A880B9800E945C0B982E0E945C0B00E0AE
:10291000802B9929998388830E945C0B982E0E94B2
:102920005C0BE12C8E2999299B838A830E945C0B86
:102930009D838C830E945C0B21E0892B09F420E0AD
:102940002E830E945C0B082E000C990B98878F83B6
:102950008091E101882379F0888199818A199B0906
:102960009A8789872B9681E0CA33D80749F681E098
:102970008093E10127CF1A861986F4CFDF91CF919A
:102980001F910F91FF90EF90DF90CF90BF90AF908D
:102990009F908F907F906F905F904F903F902F907F
:1029A00008950F931F93CF93DF938C01EB018091D8
:1029B0003A0190913B010197A1F188E091E0909359
:1029C000A2038093C4031092A3031092C50361E095
:1029D00088E398E00E94BD11F801828990E00E948E
:1029E000EC116C817D818E819F810E942925862F2B
:1029F000660F990B0E94EC11688579858A859B8505
:102A00000E942925862F660F990B0E94EC118C8558
:102A10009D850E94EC11DF91CF911F910F910C9435
:102A2000921089E0CBCF2F923F924F925F926F929C
:102A30007F928F929F92AF92BF92CF92DF92EF924E
:102A4000FF920F931F93CF93DF9300D000D01F927C
:102A5000CDB7DEB79D838C832AE939E949E95EE386
:102A6000FC0160857185828593850E94B8246B0185
:102A70007C01EC81FD81C086D186E286F3864480AC
:102A800055806680778000811181A280B38020E02C
:102A900030E0A901C301B2010E942425882309F472
:102AA00001C120E030E040E05FE3C301B2010E94D9
:102AB00016262B013C01EC81FD8144825582668201
:102AC000778220E030E0A9010E94112618160CF050
:102AD000D9C02DEC3CEC4CEC5DE3C301B2010E948B
:102AE000242587FDD9C020E030E040E05FE3C3014A
:102AF000B2010E94B8240E942925060F171FEC81FD
:102B0000FD811183008320E030E0A901C701B601F7
:102B10000E94112618160CF0E9C020E030E040E0D9
:102B20005FE3C701B6010E94B8240E9429256A0DFF
:102B30007B1DEC81FD81738362838EE0E82E81E052
:102B4000F82EB12CA12C912C812C19821801F7E0C0
:102B50002F0E311CF70180819181281639060CF463
:102B600043C024813581820F931F08171907E4F5AC
:102B7000EC81FD8162817381685F7F4FF701C280C4
:102B8000D3806C157D0584F1072E000C880B990B02
:102B90000E946125EC81FD81208531854285538528
:102BA0000E94B7242B013C01B6010D2C000C880BB0
:102BB000990B0E9461259B01AC01C301B2010E94E7
:102BC000242518168CF0F8E0CF1AD108EC81FD818D
:102BD000D382C28210861186128613861686BB8225
:102BE000AA824701F1E0F9838FEFA81AB80A9BE0A7
:102BF000E90EF11CE4E0AE16B10409F0ABCFF981A7
:102C0000FF2309F487C08A819B81039791F4811483
:102C1000910479F0F40161857285072E000C880B10
:102C2000990B0E946125EC81FD8164837583868305
:102C3000978317FF06C080E890E0EC81FD819183C7
:102C40008083EC81FD81808191818138910514F030
:102C5000118210820F900F900F900F900F90DF91C4
:102C6000CF911F910F91FF90EF90DF90CF90BF9089
:102C7000AF909F908F907F906F905F904F903F901C
:102C80002F9008952DEC3CEC4CEC5DEBC301B201B0
:102C90000E941126181634F4EC81FD8114821582ED
:102CA00016821782EC81FD81448055806680778092
:102CB00020E030E0A901C301B2010E9411261816DC
:102CC0000CF411CF20E030E0A901C301B2010E9451
:102CD000242570E060E087FF10CF20E030E040E086
:102CE0005FE3C301B2010E94B72405CF20E030E0CA
:102CF000A901C701B6010E94242570E060E087FFAA
:102D000016CF20E030E040E05FE3C701B6010E944B
:102D1000B7240BCFEC81FD8182819381C9970CF49C
:102D200088CF88E390E0EC81FD81938382831086D5
:102D300011861286138616867CCF0F931F93CF932E
:102D4000DF93EC010E94F41185FF6BC080E090E0FE
:102D5000A0E8B0EC8C839D83AE83BF8311E088E054
:102D60000E94CE12082F8823E1F08E85811119C0B0
:102D700080E090E0A0E4B0EC88879987AA87BB87C1
:102D800011E01E878DEB90E090934B0280934A02F6
:102D900090934902809348020E94280F10934C029E
:102DA000102F0E94F41182FF09C08B899C89019623
:102DB0009C8B8B8B4F9714F081E08A8B8091E30181
:102DC00082FF1EC08091E20182FD1AC081E08F87E0
:102DD0008A89811130C08AE090E0998B888B1C8AA7
:102DE0001B8A8CEA90E090934B0280934A02909366
:102DF0004902809348020E94280F81E080934C0290
:102E00008889998918161906CCF40197998B888BB3
:102E10001123D1F080E08D8BDF91CF911F910F9125
:102E200008950E94F41110E086FF99CF80E090E0B1
:102E3000A0E8B0E48FCF84E190E0CFCF1F861A8A5C
:102E40001111E8CF81E0E7CF8F858111E3CFFACF71
:102E5000AEE0B1E012968D919C9113970897E6E44D
:102E6000F3E02D913C9111972B5F3F4F31832083ED
:102E700093838283148215821682178210861186AC
:102E80001286138668E770E0758764871686178652
:102E9000118A108A128A148A138A41E0458B178A94
:102EA000168A1D968D919C911E970897EEE2F3E08D
:102EB0001B962D913C912B5F3F4F31832083938351
:102EC00082831482158216821782108611861286DA
:102ED00013867587648716861786118A108A128A68
:102EE000148A138A458B178A168A0895089590E0EC
:102EF00080E00895FC0101900020E9F73197AF01CF
:102F0000481B590BBC0186E498E00C944F0DCF93FD
:102F1000DF930E947A17EC0189E791E00E947A170B
:102F20008C0F9D1FDF91CF910895CF93DF93EC011C
:102F30000E94121288E290E090935B0280935A0202
:102F40008EE190E090935902809358028CE791E0D3
:102F5000219711F485E891E00E947A170E94E2120D
:102F60008FEE90E090934B0280934A029093490237
:102F7000809348020E94280F81E080934C020E94B7
:102F8000D91288E00E94CE12811105C084E00E940F
:102F9000CE128823A1F3C0E080914D02C81728F417
:102FA0008C2F0E94FD0ECF5FF7CF10924C02DF9165
:102FB000CF9108958F929F92AF92BF92CF92DF925E
:102FC000EF92FF920F931F93CF93DF93CDB7DEB7AE
:102FD000A1970FB6F894DEBF0FBECDBF6C01990F5D
:102FE000EE08FF08F7FE41C06DE286E498E00E941B
:102FF00027128C0122273327A9012C193D094E09DC
:103000005F0919A2CE0181967C019AE0892E912C4C
:10301000A12CB12CCA01B901A50194010E948624FA
:10302000605DF70162937F0121153105410551056E
:1030300089F790E080E0309719F0CF010E947A176D
:10304000800F911FA1960FB6F894DEBF0FBECDBFC3
:10305000DF91CF911F910F91FF90EF90DF90CF9074
:10306000BF90AF909F908F900895A701960119A2ED
:103070008E010F5D1F4F8AE0C82ED12CE12CF12C60
:10308000CA01B901A70196010E948624605DF8017A
:1030900062938F01211531054105510589F790E0B3
:1030A00080E0309779F2CF010E947A17CBCF85ED7F
:1030B0008093BC0080919E0390919F03A091A003F8
:1030C000B091A1030796A11DB11D23E0B695A79568
:1030D000979587952A95D1F72091BC0024FD03C0D0
:1030E00010929C03089540919E0350919F0360911C
:1030F000A0037091A103452B462B472B69F3009742
:10310000A105B10541F025E32A95F1F700000197EB
:10311000A109B109E1CF80919D030C9471102F9208
:103120003F924F925F926F927F928F929F92AF9257
:10313000BF92CF92DF92EF92FF920F931F93CF93A4
:10314000DF937C01EB01FC01B28822E030E0BB2080
:1031500011F025E030E00C851D8588E790E0801BAC
:10316000910B64E170E00E9497266B01C20ED31EA2
:10317000F7012081318188819981281739070CF066
:10318000C6C0B601660F771F660F771F072E000CAB
:10319000880B990B0E9461256C837D838E839F83AE
:1031A000662777276C197D09072E000C880B990B71
:1031B0000E946125688779878A879B8788E090E0ED
:1031C000BB2011F082E190E0081B190B1D870C87D2
:1031D000F7011786118A108A128A05E010E0178B12
:1031E000068B87ED90E090934B0280934A02909378
:1031F0004902809348020E94280F81E080934C028C
:103200008A809B80F4E08F0E911CC880D98044E0B6
:10321000C40ED11C6C817D818E819F810E942925E5
:10322000CB01B8010E9497262B01688579858A8594
:103230009B850E942925CB01B8010E9497263B015E
:10324000CCE5D2E00D2C000CEE08FF08092C000C98
:10325000AA08BB0883E0282E312C8A8981113EC040
:10326000C701B6010E946125688379838A839B83A5
:10327000C501B4010E9461256C837D838E839F8389
:103280000E942A24B8010E949726BC01625071094D
:10329000640D751D072E000C880B990B0E9461258B
:1032A000688779878A879B870E942A24B8010E94B1
:1032B0009726BC0162507109660D771D072E000C20
:1032C000880B990B0E9461256C877D878E879F876D
:1032D000398A288A51E05A8B1C8B0B8B659683E0C8
:1032E000CE32D80709F0B9CFDF91CF911F910F915E
:1032F000FF90EF90DF90CF90BF90AF909F908F9016
:103300007F906F905F904F903F902F9008952CEF9B
:10331000A6012403B001259F700D112437CF0F9211
:103320000FB68F939F93EF93FF9380915F038D5F11
:103330008D3708F08D5780935F03E0E6F3E08081DE
:103340008E4F808391819F4F918382818F4F8283A3
:1033500083818F4F8383E4E6F3E080818F5F8083F6
:1033600081818F4F818382818F4F828383818F4FB1
:1033700083838FB18F6066991C9B88278F3681F479
:1033800080915E03981B963068F0E0E0F8E087E7F4
:103390008083818388E180936000F0936000FFCF99
:1033A00090935E03FF91EF919F918F910FBE0F90CD
:1033B00018951F920F920FB60F9211248F939F931F
:1033C0008091E1009091E100937F9093E10083FF71
:1033D0000FC01092E90091E09093EB001092EC0086
:1033E00092E39093ED001092750398E09093F000B3
:1033F00082FF22C093E09093E9009091F20099231C
:1034000019F09AE39093E80090914402992341F0D7
:1034100090914402915090934402911101C05D9AA1
:1034200090917403992341F090917403915090937B
:103430007403911101C0289A84FF18C08091E200A2
:103440008E7E81608093E2008091E1008F7E809388
:10345000E100809145028E7E8061809345029F91BC
:103460008F910F900FBE0F901F90189580FFF7CF90
:103470008091E2008E7E80618093E2008091E10085
:103480008E7E8093E100809145028E7E8160E5CF43
:103490001F920F920FB60F921124CF92DF92EF92EC
:1034A000FF920F931F932F933F934F935F936F93CD
:1034B0007F938F939F93AF93BF93EF93FF93CF939C
:1034C000DF93CDB7DEB76C97DEBFCDBF1092E900BA
:1034D0008091E80083FF25C068E0CE0145960E94F8
:1034E000420D82EF8093E8008D8987FF39C090916B
:1034F000E80090FFFCCF982F907609F034C19E89A8
:103500004F89588D2F89F88C911131C0803861F521
:10351000809146028093F1001092F1008EEF80932B
:10352000E8006C960FB6F894DEBF0FBECDBFDF91FA
:10353000CF91FF91EF91BF91AF919F918F917F912B
:103540006F915F914F913F912F911F910F91FF903C
:10355000EF90DF90CF900F900FBE0F901F901895B7
:103560009EEF9093E800C7CF1092F100D5CF913035
:1035700059F48111D3CF4130510581F68091460233
:103580008D7F80934602CACF933049F48111C6CF14
:103590004130510519F6809146028260F2CF953094
:1035A00041F48091E80080FFFCCF20682093E30085
:1035B000B5CF963009F0A9C00B8D1C8D22E010927A
:1035C000E9001092420210924102F2122EC01092B3
:1035D000400210923F020E94110D1F8299E09983D0
:1035E000FA8291E09E8390EA98879AEF99872091DA
:1035F000410230914202275F3F4F3C832B838D83F2
:103600001092E9001092420210924102109340027F
:1036100000933F0249E050E0BE016F5F7F4F80E0C2
:103620000E94EB0C0E94110D79CF10934002009381
:103630003F020E94E10BDC0112960D911C910115D5
:10364000110509F451C1D801ED91FC910480F58177
:10365000E02DBE016B5E7F4FC8010995009709F010
:103660003EC1F80100851185EACFF3E0FF120EC0DC
:103670008F89882309F440C0823061F440E867E014
:1036800086EF98E00E946A1E811148CF81E2809304
:10369000EB0047CF813029F440E86BE08AEE98E0F8
:1036A000F1CF833099F70E94E10BDC011296ED9087
:1036B000FC908E010F5F1F4F6801E114F10479F057
:1036C000D701ED91FC910680F781E02DB801C7018B
:1036D0000995080F111DF701E084F184EECFD801A0
:1036E0001C92F60101900020E9F73197BF016C1997
:1036F0007D0940E0C601C6CF64ED78E0FB0144914E
:1037000050E080E80E94EB0C09CF973009F4BECF5F
:10371000983021F481E08093F10000CF993009F0D6
:10372000FDCE837009F0B2CFE3E4F1E081E031E057
:1037300096E32191222371F08093E9003093EB000E
:10374000DF0111972C912093EC009093ED008F5F97
:10375000873079F78EE78093EA001092EA008F892C
:1037600080937503DBCE8B8D9C8D1092E9001092B7
:103770004202109241029093400280933F02898D51
:10378000811192C08E899D89913A49F4813209F064
:103790007DCF47E050E064E071E080E0B3CF91324C
:1037A00009F074CF833269F48F89988DB0E0A0E07E
:1037B0008093000190930101A0930201B093030153
:1037C000ADCE803269F48091E80082FFFCCF67E0E3
:1037D00084E091E00E94420D8BEF8093E8009ECE42
:1037E000823209F09BCE8F8980930B01EEEFFFE7C9
:1037F000859194918B3F9C4D51F1E0E0F8E08091F0
:10380000040190910501A0910601B0910701803B50
:103810009440A105B105F1F480910B0180FD1AC01F
:10382000EE3F8AE0F80789F587E797E79183808381
:10383000809160008093430288E19BE00FB6F8948A
:10384000A895809360000FBE9093600067CEEEEF66
:10385000FAE0D5CF808191818737974709F05ECE16
:10386000A8958091600088618093600080914302F8
:1038700080936000EE3F2AE0F20789F08091FE0A13
:103880009091FF0A9183808349CE8081918187370F
:10389000980751F29093FF0A8093FE0AC5CF1092C9
:1038A000FF0A1092FE0A3ACE0E94E10BDC0112964A
:1038B0000D911C910115110509F4E8CED801ED9187
:1038C000FC910190F081E02DBE016B5E7F4FC8013D
:1038D0000995811123CEF80100851185EBCF1816CB
:1038E00019060CF41BCED2CEF1E0FF12BECE68ED6D
:1038F00078E004CF1F920F920FB60F9211242F93EE
:103900003F934F935F936F937F938F939F93AF9367
:10391000BF93EF93FF9380913B02882389F08091BE
:103920003A0281110DC080913902811109C0909134
:103930003802E0913602F091370280818927808336
:1039400080914C02882329F18091320290913302B8
:10395000A0913402B0913502892B8A2B8B2BC9F0B0
:103960008091320290913302A0913402B0913502DD
:103970000197A109B1098093320290933302A09379
:103980003402B0933502892B8A2B8B2B11F40E94C1
:10399000280FFF91EF91BF91AF919F918F917F91F0
:1039A0006F915F914F913F912F910F900FBE0F90AC
:1039B0001F9018951F920F920FB60F9211248F939C
:1039C0009F93AF93BF93EF93FF9380913E02882321
:1039D00009F454C080912E0290912F02A0913002E0
:1039E000B0913102892B8A2B8B2BA1F190912D0262
:1039F000E0912B02F0912C028081892780838091B5
:103A00002E0290912F02A0913002B091310218162F
:103A100019061A061B069CF480912E0290912F0223
:103A2000A0913002B09131020197A109B1098093B0
:103A30002E0290932F02A0933002B0933102FF9197
:103A4000EF91BF91AF919F918F910F900FBE0F900B
:103A50001F90189510923A0210923E0280916F00CA
:103A60008D7F80936F0080912D02E0912B02F09169
:103A70002C029081809589238083E1CF8091390247
:103A80008111DDCF90912D02E0912B02F0912C025B
:103A900080818927F1CF1F920F920FB60F921124C8
:103AA0002F933F934F935F936F937F938F939F9346
:103AB000AF93BF93EF93FF938091B900887F8036D7
:103AC00009F44AC0F0F5883209F4A7C018F580312E
:103AD00009F49BC0B8F4882309F4F9C0883009F4CC
:103AE00094C0FF91EF91BF91AF919F918F917F9182
:103AF0006F915F914F913F912F910F900FBE0F905B
:103B00001F901895883109F488C0803251F780934E
:103B10009A0314C0803409F49DC040F48033B9F393
:103B20008833F9F680939A0385ECB0C0803509F4A8
:103B300085C0883509F496C0883499F60E945718D4
:103B4000D0CF883909F48CC038F5883729F050F483
:103B5000883611F0803729F683E080939C03109219
:103B6000270257C0883809F47BC0803919F08038A3
:103B700009F0B7CF80912702803208F071C0E09140
:103B8000270281E08E0F809327028091BB00F0E036
:103B9000E95FFD4F80833DC0803B39F0E0F4803A1F
:103BA00009F479C0883A09F09CCF84E080939C03A3
:103BB0001092060210920502E0914E02F0914F021F
:103BC00009958091050281110FC081E08093050263
:103BD0001092E50109C0803C09F4A6CF883C09F4A5
:103BE000A3CF883B09F07DCFE091060281E08E0FE4
:103BF00080930602F0E0EB51FE4F80818093BB0082
:103C0000909106028091050229C0809177038093EC
:103C1000BB0085EC8093BC0064CF909199038091A8
:103C20009803981758F5E091990381E08E0F8093DF
:103C30009903F0E0E858FC4F8081E9CFE0919903C7
:103C400081E08E0F809399038091BB00F0E0E858EB
:103C5000FC4F808390919903809198039817C8F244
:103C600085E8D8CFE091990381E08E0F8093990386
:103C70008091BB00F0E0E858FC4F808380919B036B
:103C800081115CCF81E08093760384EA8093BC004D
:103C900010929C0326CF85EC8093BC0010929C036D
:103CA00080912702803230F4E0912702F0E0E95F52
:103CB000FD4F10826091270270E0E0915002F09178
:103CC000510287E092E00995109227020ACF1092E4
:103CD0009A0334CFEF92FF920F931F93CF93DF930A
:103CE000F82E192FE62E042F81E0860F880F0E94F0
:103CF000BD0C83E00E94BD0CCF2DD12FEC0EFD2E0C
:103D0000F11CCE15DF05B9F007FF13C0FE01849149
:103D10000E94BD0C182F80E00E94BD0C81232196CB
:103D20008111EFCFDF91CF911F910F91FF90EF9015
:103D300008958881EDCF81E0F5CFE8EEF7E01382BA
:103D4000128288EE93E0A0E0B0E084839583A6839E
:103D5000B7832DE431E0318320832FEF3FEF3587A8
:103D60002487E8E3F8E01382128284839583A68394
:103D7000B7838FE591E091838083E6E4F8E01382D6
:103D8000128281E791E09183808387E29BE09093A8
:103D90004508809344080895CDB7DEB72597DEBF68
:103DA000CDBF789483E084BD83E085BD81E08093BE
:103DB0006E00E1E8F0E083E08083E0E881E080836A
:103DC000E1E983E08083E0E981E08083E1EC87E062
:103DD0008083E3EC81E08083E0EC82E08083E2ECAE
:103DE00081E08083EAE787E08083806880831092A7
:103DF000750310924602109245028091D7008160AF
:103E00008093D70080EA8093D80089B5806189BD0E
:103E100089B5826089BD09B400FEFDCF81E090E0E4
:103E20000E94660C8091D8008F7C80618093D800BE
:103E30008091E000807F8093E0008091E1008E7EA1
:103E40008093E1008DE08093E200559A209A81EC06
:103E500080937C0081EF85B987EE84B984E38BB9C8
:103E600084EF8AB9769A6E9880EF81BB10BA80E5AC
:103E70008CBD81E08DBD85E00E94F1115F9A85E0E7
:103E80000E94F1115C98EEEFF8E085918EBD000084
:103E90000DB407FEFDCFEB30C1F75C9A81E880934B
:103EA000640081E0809365000E94E2120E94F41198
:103EB00087FF15C05C9885EA8EBD00000DB407FE33
:103EC000FDCF5C9A2E982F982D9880916400806287
:103ED0008093640081E083BF889513BEFCCF0E946D
:103EE000F41182FF37C02D980E94F4118478843831
:103EF000A1F42D9A88EC0E94F1112F986FEF82E0C7
:103F000090E00E94422484EF91E00E94660C2F9A78
:103F10000E94F41184788438D9F30E94F4118471DA
:103F20008431A1F42D9A88EC0E94F1112E9860E062
:103F300082E090E00E94422484EF91E00E94660CAF
:103F40002E9A0E94F41184718431D9F388EC0E9476
:103F5000F111C5CF2D9A82E090E00E943A24882387
:103F600009F448C03E9A3F9A81E0809347028FEF60
:103F70009FEF9093F5078093F40785E00E942A0B4A
:103F80008DE00E942A0B60E08DE00E94F50B85E039
:103F90000E94B50F8DE00E94B50F80914C028111F7
:103FA0000FC08DE091E190934B0280934A02909371
:103FB0004902809348020E94280F81E080934C02BE
:103FC000809164008F778093640085E48093BC00C7
:103FD0001092B90088E48093B8000E94121281E226
:103FE00080930D010E94F411182F882341F00E9444
:103FF000D912F8CF109247023E983F98B8CF60E4AC
:1040000070E07B836A83E0E2AE2EB12CF8E1EF2E04
:10401000F12CDD24D3940E94D9120E9412128A81BD
:104020009B818138EFEF9E070CF45FC001979B8363
:104030008A8380389F4F09F06AC00E94E21268E7C5
:1040400070E080E090E0AB01FC010E947A0C4150EE
:104050005109E109F10928F068517C4F8F4F9F4FBA
:10406000F6CFAB01FC010E947A0C641775078E072E
:104070009F07C8F388E00E94CE12811106C084E039
:104080000E94CE12882309F4C6CF0E94121285E93D
:1040900091E00E94871784EA91E00E9487178BE7DE
:1040A00091E00E94871785EB91E00E94871785ECCD
:1040B00091E00E9487170E94E2120E94D91288E0C4
:1040C0000E94CE12882309F485C081E090E090938D
:1040D0003B0180933A0180914D02181708F083C08C
:1040E000812F0E94FD0E1F5FF6CFB0925B02A0925F
:1040F0005A02F0925902E092580202E000930C0139
:104100008EE891E00E947A17D0920C0196CF2A8116
:104110002770C22E8A819B8163E0959587956A9569
:10412000E1F7AC015695542F44275795479530E059
:1041300020E0BA016A537C4F3B01FA01EA5BFB4F76
:104140004F018F3FFFEF9F07C4F1D301A20FB31FB1
:104150001401220E331E50E040E0B901655F764F36
:104160002B01F201E40FF51FE491F0E0BF010C2CEC
:1041700002C0660F771F0A94E2F77D836C838F3F3E
:10418000980709F417C36C91EC816E2B6C93CC20CB
:1041900071F08730910559F0B101640F751FFB0173
:1041A000F081F9830F2FED810E2BFB0100834F5F10
:1041B0005F4F119640385105A1F6019620583F4FA8
:1041C0002115F8E03F0709F438CF8830910509F050
:1041D000B8CF33CF84E00E94CE12882309F46DCF8C
:1041E00082E090E074CF10924C0280913A0190915D
:1041F0003B011092E7071092E6071092A30310927A
:10420000C503019709F051C00E94531082E99CE058
:1042100090934F0280934E0283E99CE09093510269
:104220008093500280E18093BA008DEC93E19093EB
:1042300053028093520210921801109217011092AB
:1042400023011092220110922E0110922D01109242
:104250003901109238010E9428178EE293E05CE544
:10426000C52E52E0D52EF601128A148A138AF5E182
:10427000CF0ED11C8C159D05B1F725E0222E312CD7
:104280003AE3A32E31E0B32E11E040E5842E912CC9
:10429000809156028823C9F01092560280E090E087
:1042A000892BB1F30E940000F3CF0E94531082E9E2
:1042B0009CE090934F0280934E0283E99CE09093A0
:1042C00051028093500282E1AECF909160038091C1
:1042D0005702092F081B802F20910D01021740F46F
:1042E0008F5F8217D8F621E023BF889513BED6CF03
:1042F0001093560290935702E4E5F2E08081918199
:104300000196808391830E94D9120E9412124091DB
:104310003A0150913B01EEE0F1E04130510509F0E6
:104320001DC28681882309F416C2278130858081C9
:104330009181820F931F91838083328721878431FB
:1043400091053CF064817581860F971F8D3691052C
:104350002CF0319521953109308727833B96AE1695
:10436000BF06F9F68EE293E04130510509F051C0E5
:104370001093A20349E04093C4031092A303109248
:10438000C50362E088E398E00E94BD116EE071E031
:104390007B836A83EA81FB819181892F990F990B35
:1043A0000E94EC11EA81FB818081918199270E9412
:1043B000EC11EA81FB819381892F990F990B0E945F
:1043C000EC11EA81FB818281938199270E94EC1193
:1043D000EA81FB81848195810E94EC11EA81FB8155
:1043E000868190E00E94EC11EA81FB818781082E92
:1043F000000C990B0E94EC116A817B81655F7F4FF5
:104400007B836A83A616B70629F60E94921086E47B
:1044100093E00E949D1686E493E00E9413158EE2BD
:1044200093E00E94131580913A0190913B019B8388
:104430008A83019709F09CC189E01093A2038093BD
:10444000C4031092A3031092C50360E088E398E0D0
:104450000E94BD11EA81FB81319709F08BC166E4AE
:1044600073E07B836A83EA81FB819181892F990FB5
:10447000990B0E94EC11EA81FB818081918199273F
:104480000E94EC11EA81FB819381892F990F990B8E
:104490000E94EC11EA81FB818281938199270E941D
:1044A000EC11EA81FB8164817581868197810E948C
:1044B0002925862F660F990B0E94EC11EA81FB815A
:1044C00060857185828593850E942925862F660FD8
:1044D000990B0E94EC11EA81FB81878590E00E9494
:1044E000EC11EA81FB81828990E00E94EC11EA8163
:1044F000FB81848595850E94EC11EA81FB81858989
:1045000090E00E94EC110E94921080915503882344
:1045100069F180915603909157031816190634F5E6
:10452000809146039091470320912E0330912F03F1
:10453000821B930B07960F97C8F4809148039091C4
:1045400049032091300330913103821B930B07966E
:104550000F9760F46EE273E086E493E00E948F1898
:104560006EE273E086E493E00E94D11480913D03F3
:10457000882369F180913E0390913F031816190634
:1045800034F580912E0390912F03209146033091B2
:104590004703821B930B07960F97C8F48091300353
:1045A000909131032091480330914903821B930B72
:1045B00007960F9760F466E473E08EE293E00E9442
:1045C0008F1866E473E08EE293E00E94D1146CE5EC
:1045D00072E07B836A83EA81FB818289882389F187
:1045E00020853185428553856081718182819381E7
:1045F0000E94B824EA81FB81608371838283938364
:1046000024853585468557856481758186819781A6
:104610000E94B824EA81FB81648375838683978333
:1046200083899489181619060CF0A9C00197948BF8
:10463000838BEA81FB8180899189181619060CF019
:10464000128A6A817B816B5E7F4F7B836A836C15E4
:104650007D0509F69EE0E92E91E0F92EF7016281D1
:10466000738101E022E04481808191810E941F13C7
:10467000FBE0EF0EF11C0AE3E01601E0F00671F733
:1046800086E493E00E9441138EE293E00E9441137E
:104690008CE5E82E82E0F82EF70182898823C1F0AC
:1046A000F089F983F70164817581868197810E9481
:1046B00029252B01F70160817181828193810E94FC
:1046C0002925CB0101E02981422FB2010E941F134D
:1046D000F5E1EF0EF11C6A817B81E616F706E1F643
:1046E00010925B0210925A021092590210925802D4
:1046F00085ED91E00E947A178091520390915303C7
:104700000E94DA1790925B0280925A02109259022C
:10471000109258028AED91E00E947A1780913A0334
:1047200090913B030E94DA178091520390915303BA
:10473000181619063CF4809148039091490381347E
:1047400091053CF182E090E00E9495170E942817A5
:104750000E94E212A3CD1286118600CE86818111BD
:1047600002C0128611863B96AE16BF06B9F7FACD87
:1047700088E063CE8EE293E09B838A8374CEEA81E5
:10478000FB81808991890197918B808B348A238A60
:1047900050CF80913A0390913B03181619063CF4D0
:1047A0008091300390913103813491058CF281E046
:1047B00090E0CACFCC2009F4FACCEECC8F929F9235
:1047C000AF92BF92CF92DF92EF92FF92CF93DF939F
:1047D000EC01688179818A819B8161157105810570
:1047E000910521F464E279ED8BE597E02DE133EF5B
:1047F00041E050E00E94542449015A019B01AC0160
:10480000A7EAB1E40E9473246B017C01ACEEB4EF23
:10481000A50194010E948124DC01CB018C0D9D1D1A
:10482000AE1DBF1DB7FF03C00197A109B048888323
:104830009983AA83BB839F77DF91CF91FF90EF90FD
:10484000DF90CF90BF90AF909F908F9008950E947F
:10485000DE2308958CE391E00E94DE230895B0E00A
:10486000A0E080933C0190933D01A0933E01B09362
:104870003F010895F999FECF92BD81BDF89A99271D
:1048800080B50895262FF999FECF92BD81BDF89A83
:10489000019700B4021639F01FBA20BD0FB6F89484
:1048A000FA9AF99A0FBE0895052E97FB1EF400940C
:1048B0000E946B2457FD07D00E94862407FC03D07A
:1048C0004EF40C946B2450954095309521953F4FB4
:1048D0004F4F5F4F089590958095709561957F4FEC
:1048E0008F4F9F4F08950E94A824A59F900DB49FBD
:1048F000900DA49F800D911D11240895B7FF0C9475
:1049000073240E947324821B930B0895A1E21A2E34
:10491000AA1BBB1BFD010DC0AA1FBB1FEE1FFF1F63
:10492000A217B307E407F50720F0A21BB30BE40BB3
:10493000F50B661F771F881F991F1A9469F76095FA
:104940007095809590959B01AC01BD01CF010895B4
:10495000A29FB001B39FC001A39F700D811D1124C0
:10496000911DB29F700D811D1124911D0895505805
:10497000BB27AA270E94CF240C94D7250E94C925C3
:1049800038F00E94D02520F039F49F3F19F426F426
:104990000C94C6250EF4E095E7FB0C94C025E92F96
:1049A0000E94E82558F3BA17620773078407950732
:1049B00020F079F4A6F50C940A260EF4E0950B2E5F
:1049C000BA2FA02D0B01B90190010C01CA01A00161
:1049D0001124FF27591B99F0593F50F4503E68F1BC
:1049E0001A16F040A22F232F342F4427585FF3CFFD
:1049F000469537952795A795F0405395C9F77EF4CE
:104A00001F16BA0B620B730B840BBAF09150A1F016
:104A1000FF0FBB1F661F771F881FC2F70EC0BA0F9C
:104A2000621F731F841F48F4879577956795B79524
:104A3000F7959E3F08F0B0CF9395880F08F099271F
:104A4000EE0F9795879508950E949C2508F481E0C4
:104A500008950E9430256894B1110C940B26089596
:104A60000E94F02588F09F5798F0B92F9927B751E9
:104A7000B0F0E1F0660F771F881F991F1AF0BA9502
:104A8000C9F714C0B13091F00E940A26B1E0089530
:104A90000C940A26672F782F8827B85F39F0B93F22
:104AA000CCF3869577956795B395D9F73EF49095B5
:104AB0008095709561957F4F8F4F9F4F0895E89433
:104AC00009C097FB3EF490958095709561957F4F56
:104AD0008F4F9F4F9923A9F0F92F96E9BB27939504
:104AE000F695879577956795B795F111F8CFFAF414
:104AF000BB0F11F460FF1BC06F5F7F4F8F4F9F4F45
:104B000016C0882311F096E911C0772321F09EE8A2
:104B1000872F762F05C0662371F096E8862F70E008
:104B200060E02AF09A95660F771F881FDAF7880FE2
:104B30009695879597F90895990F0008550FAA0B38
:104B4000E0E8FEEF16161706E807F907C0F01216A0
:104B50001306E407F50798F0621B730B840B950BA3
:104B600039F40A2661F0232B242B252B21F40895F8
:104B70000A2609F4A140A6958FEF811D811D089595
:104B800097F99F6780E870E060E008959FEF80EC00
:104B9000089500240A9416161706180609060895A3
:104BA00000240A9412161306140605060895092E09
:104BB0000394000C11F4882352F0BB0F40F4BF2B78
:104BC00011F460FF04C06F5F7F4F8F4F9F4F0895B8
:104BD00057FD9058440F551F59F05F3F71F04795AE
:104BE000880F97FB991F61F09F3F79F08795089593
:104BF000121613061406551FF2CF4695F1DF08C0B2
:104C0000161617061806991FF1CF869571056105CE
:104C100008940895E894BB2766277727CB0197F976
:104C200008950E949C2508F48FEF08950E9429267C
:104C30000C94D7250E94C92538F00E94D02520F079
:104C4000952311F00C94C0250C94C62511240C94C6
:104C50000B260E94E82570F3959FC1F3950F50E055
:104C6000551F629FF001729FBB27F00DB11D639F1E
:104C7000AA27F00DB11DAA1F649F6627B00DA11DC4
:104C8000661F829F2227B00DA11D621F739FB00D6A
:104C9000A11D621F839FA00D611D221F749F3327DA
:104CA000A00D611D231F849F600D211D822F762F73
:104CB0006A2F11249F5750409AF0F1F088234AF050
:104CC000EE0FFF1FBB1F661F771F881F91505040BC
:104CD000A9F79E3F510580F00C94C0250C940B263B
:104CE0005F3FE4F3983ED4F3869577956795B79543
:104CF000F795E7959F5FC1F7FE2B880F911D96955D
:104D0000879597F90895AA1BBB1B51E107C0AA1FFD
:104D1000BB1FA617B70710F0A61BB70B881F991F5C
:104D20005A95A9F780959095BC01CD01089597FB00
:104D3000072E16F4009407D077FD09D00E94832631
:104D400007FC05D03EF4909581959F4F089570958E
:104D500061957F4F0895EE0FFF1F0590F491E02DB0
:064D60000994F894FFCF56
:104D6600FFFFFFFF00E1000000000000011014003B
:104D76002800280000000000003C0014001E00006F
:104D8600000000005A0032001E000000000000284B
:104D9600001E001E000101000000010001000000CD
:104DA600030100C1808100000000000000FF0D7CAF
:104DB6000D200E150E660E240E420E00000000BDDC
:104DC600119011771779118911490B7A110000009A
:104DD6000027124F0D771776170D0A00503220570D
:104DE600696E73210050312057696E732100464960
:104DF600474854210020204241534820425544440C
:104E060049455300202053656C65637420506C61DE
:104E16007965723A002020205B415D20506C6179F3
:104E260065722031002020205B425D20506C617944
:104E3600657220320050313A200050323A2000008C
:00000001FF
