:100000000C946B120C9493120C9493120C94931204
:100010000C9493120C9493120C9493120C949312CC
:100020000C9493120C9493120C9428230C94972301
:100030000C9493120C9493120C9493120C949312AC
:100040000C9493120C9429260C9493120C949312F2
:100050000C9493120C9493120C9493120C94DE2231
:100060000C9493120C9493120C9493120C9493127C
:100070000C9493120C9493120C9493120C9493126C
:100080000C94C9250C9493120C9493120C94931213
:100090000C949A260C9493120C9493120C94931231
:1000A0000C9493120C9493120C949312905E000F84
:1000B000905C001080000F905A001080F0903E007D
:1000C0000A9040000A9041000B9043000A904700BC
:1000D0000B904A000A80F09030001F80001F903083
:1000E000001F800020902C003E9029003F80F0905F
:1000F000420003913200D3904300879042004B802E
:1001000000049043006B90420064923E0007800020
:10011000D7904091308200EF800003903E00AF9274
:100120003C00048000DD82001D903B0088810003BC
:1001300080002B902F0004913E00C481000E913B63
:1001400000C1810019903C912D00BE8000159039AE
:1001500000C880000E903B0004912B00CF8000046B
:100160009037008481004480000E9039912A00DA93
:100170008081001C901C9140014981004491400005
:100180003980002E810016901C003C800024904293
:100190000004911E011680002F810003901C00397D
:1001A0008000219043000E911F00E1810047911FC4
:1001B00000448000128100159021001291420056E7
:1001C00080000B9024005580000F9026006E92282E
:1001D000000880002A810024820016901C000E91E5
:1001E00043010C80003C810004901C0044800015F9
:1001F0009042000F911E005280007D9040003C8193
:10020000002F911C0047810024911F011A810027B3
:10021000911F004F8100159121006480000F9023F1
:10022000000781004E8000199026914000689228B6
:10023000002080003682001C901C007A81005591BD
:10024000400021800052901C810044800020901EBC
:10025000000391420117800027901C000B8100329F
:10026000800032901F9143010880002B901F0019DD
:1002700081004780000F902100079142004E8000CE
:10028000169023000B8100528000159026914000AB
:100290006B9228002080003D82000E901C00E980B7
:1002A0000059901C004780001D901E012580001CF5
:1002B000901C0039800032901F01B1800099811795
:1002C00050F000000000003E5B4F5B3E3E6B4F6B0A
:1002D0003E1C3E7C3E1C183C7E3C181C577D571C27
:1002E0001C5E7F5E1C00183C1800FFE7C3E7FF00A0
:1002F00018241800FFE7DBE7FF30483A060E2629EE
:10030000792926407F050507407F05253F5A3CE7B0
:100310003C5A7F3E1C1C08081C1C3E7F14227F2276
:10032000145F5F005F5F06097F017F006689956A41
:10033000606060606094A2FFA29408047E040810CC
:10034000207E201008082A1C08081C2A08081E10F5
:100350001010100C1E0C1E0C30383E3830060E3EAD
:100360000E06000000000000005F0000000700070C
:1003700000147F147F14242A7F2A12231308646236
:1003800036495620500008070300001C2241000097
:1003900041221C002A1C7F1C2A08083E08080080F5
:1003A000703000080808080800006060002010088D
:1003B00004023E5149453E00427F4000724949498E
:1003C000462141494D331814127F102745454539C0
:1003D0003C4A4949314121110907364949493646C4
:1003E0004949291E000014000000403400000008A4
:1003F0001422411414141414004122140802015947
:1004000009063E415D594E7C1211127C7F494949D3
:10041000363E414141227F4141413E7F4949494168
:100420007F090909013E414151737F0808087F0097
:10043000417F41002040413F017F081422417F401D
:100440004040407F021C027F7F0408107F3E4141F4
:10045000413E7F090909063E4151215E7F09192964
:1004600046264949493203017F01033F4040403F4E
:100470001F2040201F3F4038403F6314081463038F
:10048000047804036159494D43007F41414102040E
:10049000081020004141417F040201020440404015
:1004A0004040000307080020545478407F2844440B
:1004B000383844444428384444287F385454541825
:1004C00000087E090218A4A49C787F080404780020
:1004D000447D40002040403D007F10284400004102
:1004E0007F40007C047804787C0804047838444415
:1004F0004438FC1824241818242418FC7C0804040C
:1005000008485454542404043F44243C4040207C74
:100510001C2040201C3C4030403C44281028444CC7
:100520009090907C4464544C440008364100000094
:10053000770000004136080002010204023C262335
:10054000263C1EA1A161123A4040207A38545455ED
:1005500059215555794121545478412155547840B9
:1005600020545579400C1E5272123955555559393F
:100570005454545939555454580000457C41000294
:10058000457D420001457C40F0292429F0F02825D2
:1005900028F07C545545002054547C547C0A097F33
:1005A0004932494949323248484832324A4848304B
:1005B0003A4141217A3A42402078009DA0A07D39FD
:1005C000444444393D4040403D3C24FF2424487E7F
:1005D0004943662B2FFC2F2BFF0929F620C0887E6C
:1005E000090320545479410000447D413048484A71
:1005F00032384040227A007A0A0A727D0D19317D24
:100600002629292F28262929292630484D402038F7
:100610000808080808080808382F10C8ACBA2F10B6
:100620002834FA00007B000008142A142222142A1D
:1006300014089500220095AA005500AAAA55AA55AB
:10064000AA000000FF00101010FF00141414FF0097
:100650001010FF00FF1010F010F0141414FC001420
:1006600014F700FF0000FF00FF1414F404FC14143E
:1006700017101F10101F101F1414141F001010103B
:10068000F0000000001F101010101F10101010F0CC
:1006900010000000FF101010101010101010FF10AC
:1006A000000000FF140000FF00FF00001F101700F3
:1006B00000FC04F414141710171414F404F40000CC
:1006C000FF00F714141414141414F700F71414147E
:1006D000171410101F101F141414F4141010F0101D
:1006E000F000001F101F0000001F14000000FC1489
:1006F0000000F010F01010FF10FF141414FF14107D
:1007000010101F00000000F010FFFFFFFFFFF0F0CF
:10071000F0F0F0FFFFFF0000000000FFFF0F0F0FE1
:100720000F0F38444438447C2A2A3E147E020206C5
:1007300006027E027E0263554941633844443C040C
:10074000407E201E2006027E020299A5E7A5991C84
:100750002A492A1C4C7201724C304A4D4D303048A7
:10076000784830BC625A463D3E494949007E010105
:10077000017E2A2A2A2A2A44445F444440514A449A
:100780004040444A51400000FF0103E080FF000068
:1007900008086B6B083612362436060F090F060060
:1007A0000018180000001010003040FF0101001F69
:1007B00001011E00191D1712003C3C3C3C000000CA
:1007C000000006011501260137014A015D01720191
:1007D00088019F01B801D201EE010B022A024B02EF
:1007E0006E029302BA02E40210033F037003A403F3
:1007F000DC03170455049704DD0427057505C805B7
:1008000020067D06E0064907B8072D08A9082D092E
:10081000B9094D0AEA0A900B400CFA0CC00D910E72
:100820006F0F5A1053115B1272139A14D4152017BC
:100830008018F519801B231DDE1EB420A622B524C6
:10084000E4263429A72B402E0031EA330037453AFD
:10085000BC3D68414C456B49C84D68524F57805C60
:10086000006210111213151617181A1C1D1F2123D0
:100870002527292C2E3134373A3E4145494E5257CF
:100880005C62686E757B838B939CA5AFB9C4D0DC2A
:10089000E9F7080B0002020200000904000001024F
:1008A00002000005240010010524010101042402B6
:1008B0000605240600010705810310004009040114
:1008C00000020A000000070502024000000705833D
:1008D000024000000403090412010002EF0201407B
:1008E0004123368000010102030141726475696E83
:1008F0006F204C4C430041726475626F7900D5F0F3
:100900008D14A1C881CFD9F1AF2000FFFFFFFFFFF9
:10091000FFFFFFFFFFFFBF7E99E79F7FFFFFFFFF06
:10092000FFFFFFFFFFFFFFFFFFFFFFFFFFFF9FEF47
:10093000F779371F0F0F07C3E3F1FFFFFFFFFFFF3B
:10094000FFFFFFFFFFFF7F8EF1FFFFFFFCFBF7774D
:100950006F5F5FDFDFFF07070707FBFDFF00000793
:10096000F8F8FCFC000000FFDFBF7FFF9F9E3D39D1
:10097000B56D7D3D1EFE1F0F1FFFFF3F070180F07D
:10098000C060301F0F8FFF00000003F1F8F88000F7
:1009900007FFFFFF7CA0F0FFFDFEFFFFCFC70301B5
:1009A0000070783C3EFF000000FFC30000003F11D4
:1009B0000880E08080FFFFFFF8E0F0FFFFFFFFFE10
:1009C000FFFFFFFC736FDFBFBFFFFFFFFFFF0000F4
:1009D000007CFCFEF7EFFEF0A0213F1EFE7C3C1EDB
:1009E0000F0F878383838383830303070F1F3F7F57
:1009F0000FE1F0F0F1F3F3F7FFFFFFFFFFFFFEF869
:100A0000F8FEFFFFFFFFFFFFFF9EC0E0F1F8FCFED6
:100A1000FFFFFFFFFFFFFFFFFFFFFEFCF8F0C0FE40
:100A2000FCFFFFFFFFFFFFFFFFFFFF7E460400000C
:100A300020202000100040400A10000000C0E0E02C
:100A4000F0F0F0F0E0E2C0C1808004000000080097
:100A50000020000000000000C4E7F3FDE500E0F81E
:100A6000CC76649CF8400040E0F8FEFEF733636308
:100A7000C3C7078F1F3F7960CFFFFF1E3EFCF838CA
:100A80000C000030E0C0923BFFFFFFFFFFE2031FBE
:100A90003970E0D9FFB0F0FEFFFFFFFFFFFFFEFD62
:100AA000F9F8FCFEE6E8F0F0F0F1F1F04C0301207B
:100AB0002281C0F0F9FFFFF7F8FFFF870F07F8FE6C
:100AC000FFFEF0E01F7FFFFFFFFFFFFFFFFFFFFFC5
:100AD0003F7FFFFFFFFFFFEFCF4F0F1F1F1888E083
:100AE000F8FFFFFFFFFFFFFFFFFFFF810102070F7E
:100AF0000F1F3F3F7EC0813367CF8F1F3F7FFFFFB8
:100B0000FFFFFEFEEEC5CDCD0B0BC2E0F8FEFFFFF2
:100B1000FFFFFFFFFFFFFFFFFFFFFF018312260420
:100B2000000000000000010302060D0A18302071C9
:100B3000C3830707E7371713180F030101030707DC
:100B40000F1F1F3F7F7FFFFFFFFFFFCE3F7FFFFF96
:100B5000FFFF8000403F1F0F030103210010001022
:100B60000C20180410082410480C209090414103D8
:100B700003070F1F3F7F7FFFFFFFFF7FBFDEECED0F
:100B80006133870780000000000000000070F8FC5F
:100B9000FEFE7F3E3F1F0E0E068C9C38E0C0820199
:100BA0000010000000000001097FFFDEFFFF1F01B1
:100BB00000E1FCFF210000000000001000EFC7C3AF
:100BC000C180E0F0F0E2C3C3C1E1F3FFFFFFFF3CEF
:100BD0000000F0782474E4C81000EEFFFFFFFCE092
:100BE000800F7FFFFEFEF800060400081F1F9FDF36
:100BF000FFFFFFFFFFFF7F3F9FFFFFFFFFFFFFFCA8
:100C0000FEFF3F2230180C06C2F8FFFFFFFFFFFF78
:100C1000FFFFFEFDFBF7EFFFF8E0E0C00000090D6D
:100C200005051EFEFEFFFFFFFFFFFFFF7F3F3F1F8B
:100C30000F87F078000000980B0F0FFFFFFF7F7FFA
:100C40003F1F1F1F0F0F07070703030303060810AB
:100C500000008087474767233331101808080C0CC1
:100C6000040402020301010180C040FFFFFFFFFFF7
:100C7000FFFFFFFFFFFFFFFFFFFFFF3FFFFFFFFF44
:100C8000FFFF7FFFFFFFFFFFFFFF3FFFFFFFFFFFB4
:100C9000FFFFFFFFFFFFFFFFFFFFFFFFFFFFFFFF64
:100CA000FFFFFFFFFFFF7F77B7BD3F777E3DBB2F85
:100CB0002D7F7E677F2D37BB3D7E773FBD377F7FA2
:100CC000FFFFFFFFFFFFFFFFFFFFFFFFFFFFFFFF34
:100CD000FB9B9333797C7E3B0303077E7E7C01E3A1
:100CE000EFEE0000EEE7C3017CFE7E0707033F7EC8
:100CF0007C793393DBFBFFFFFFFFFFFFFFFFFFFF6D
:100D0000DF88C7C48C9C3C383020000026666666AD
:100D10006626000026666666662604002038383C93
:100D20001C8CC4C38BDFFFFFFFFFFFFFFFFFFFFF34
:100D3000FFFFFFFFFFFFFFE7F3DBFFB79FCFE7FBFF
:100D4000DAFEF21EFEDEDBF7CF9DB7F7DFF3F7FF2B
:100D5000FFFFFFFFFFFFFFFFFFFFFFFFFFFFFFFFA3
:100D6000FFFFFFFFFFFFFFFFFFFFFEFFFFFFFFFF94
:100D7000FFFFFFFEFFFFFFFFFFFFFFFEFFFFFFFF85
:100D8000FFFFFFFFFFFFFFFFFFFFFFFFFFFFFF7FF3
:100D90007FFFFFFFFF7F3F3F3F7F7FFFFF7F7FFFA3
:100DA000FFFFFFFFFFFFFFFFFFFFFFFFFFFFFFFF53
:100DB000FFFFFFFFFFFFFFFFFFFFFFFFFFFFFF3F03
:100DC0001E4C2424081000CC0E04A68FB891C0FC41
:100DD0007F7F3B131F092B87EF7377DF8F47878751
:100DE000070F3F1F5F9FBFFFFFFFFFFFFFFFFFF8E2
:100DF000F8FAFAF8F0C18888020203013170F0D8DD
:100E0000C8A0CCEC8E838307382108122723313108
:100E100018180383FEFEFFFFFFFFFFFFFFFFFFFF2A
:100E2000FFFFFFFFFFFF0393C1E0E0F0F0F8FCFFDE
:100E3000FFFFFFFFFFFFFFFF7E3C0C061392060241
:100E40001C0282E3EFFFFFFFFFFFFFFFFFFFFFFF3B
:100E5000FFFFFFFFFFFFFFFFFFFFFFFFFFFFFFFFA2
:100E6000FFFFFF7F7F9F870300C0F0FCFFFFFCF8C0
:100E700070600181C30F1FFFFFFFFFFFFFFFFDFD3C
:100E8000FEFCFCFCFCFCFCFCFCFCFCFCFCFCFCFCA0
:100E9000FCFCFCFCFCFCFCFCFCFCFCFCFCFCFCFC92
:100EA000FCFCFCFCFEFCFCFFFFFFFFFFFFFFFFFF65
:100EB000FFFFFFFFFFFFFFFFFF7F7F7FFFFFFFFFC2
:100EC000FFFFFFFFFFFFFFFFFFFFFFFFFFFFFFFF32
:100ED000FFFFFFFFFFFFFFFFFFFFFFFFFFFFFFFF22
:100EE000FFFFFF7F3F3F9F01E0D89898080D0F0F4D
:100EF0001F8F8787C74F673763E3FF7F3FEBC9C00B
:100F000040091F77FFDFFFFFFFFFFFFFFFFFFFFF2E
:100F1000F3E1E0E6F2F9614040C34FC30040F8FF5F
:100F2000FFFFF9F9F973362624A4464682838180AF
:100F3000C0E0F8FCFFFFFFFFFFFFFFFFFFFFFFFF29
:100F4000FFFFFFFFFF7F04000000C0F0F3E2C0C01E
:100F500003030FCF3F1F060783C1A0101008487876
:100F6000FCFFFFFFFFFFFFFFFFFFFFFFFFFFFF9FF4
:100F70003F47016160F0F8FCFEFFFFFFFF7F7F3B12
:100F800060603F030020387CFFFFFFFE7EFCF8F02E
:100F9000F0E1612307477FFFFFFFFFFFFFFFFFFF38
:100FA000FFFEFEFEFEFEFEFEFCFCFCFCFCFEFEFE6A
:100FB000FEFEFEFEFEFEFEFEFEFCFCFCFCFCFCFC5F
:100FC000FCFEFEFEFEFEFEFFFFFFFFFFFFFFFFFF3A
:100FD000FFFFFFFFFFFFFFFFFFFFFFFFFFFFFFFF21
:100FE000FFFFFFFFFFE70707EFFFFFFFFFFFFFFF29
:100FF000FFFFFFFFFFFFFFFFFFFFFFFFFFFFFFFF01
:10100000FFFFFFFFFFFFFFFFFFFFFFFFFFFFFFFFF0
:10101000CF878313170F00007FFFFFFFFFFFFFFF46
:10102000FFFFFFFFFFFFFFFFFFFFFFFFFFFFFFFFD0
:10103000FFFFFFFFFFFFFFFFFFFFFF9F8FC7E3F3F0
:10104000F1F8FC7C381000000007FFFFFFFFFFFFF6
:10105000FFFFFFFFFFFFFFFFFFFFFFFFFFFFFFFFA0
:10106000FFFFFFFFFFFFFFFFFFFFFF3F1F1F0F8778
:10107000C3E3607030180C048080E0FFFFFFFFFFC7
:10108000FFFFFFFFFFFFFFFFFFFFFFFFFFFFFFFF70
:10109000FFFFFFFFFFFFFFFFFF7FF8F8FCFEFFFFF2
:1010A000FFF7F0F0FCFEFFFFFFFFFFFFFFFFFFFF7A
:1010B000FFFFFFFFFFFFFFFFFFFFFFFFFFFFFFFF40
:1010C000FFFFFFFFFFFFFFCFFFCECFFFCCCCFFCF57
:1010D000CFCFCBCBCFCFCFCFCFCFCCFDCFCFFFFF9D
:1010E000FFFFFFFFFFFFFFFFFFFFFFFFFFFFFFFF10
:1010F000FFFFFFFFFFFFFFFFFFFFFFFFFFFFFFFF00
:10110000FFFFFFFFFFFFFFFFFFFFFFFFFF7FFFFF6F
:10111000FFFFFFFFFFFFFFFFFFFFFFFFFFFFFFFFDF
:101120003F67371B190D0D0303070F1F9FA7B75309
:101130005B2F2F17978BCB87A1B1B3F6B2F3FCFCD3
:10114000FF7FFFFFFFFFFFFFFFFFFFFFFFFFFFFF2F
:101150007CF8E11898990C466030101818000000CF
:101160000002030B0B2BAAAFAFBFBFB9BFBFBFBB02
:10117000FFFFBFFFFFFFFFFFFFFFFFFFFFFFFFF0CE
:10118000F3F1F1F9FCCC9E070303010100303010AC
:101190003830F0F0E0E0C081830206021313336DB3
:1011A0003CBFBDBFB3FFFEFFFFFFFFFFFFFFFFFF21
:1011B000FFFF7F7F7F7F7F7F7F7F3E3E3E3C3C3CCB
:1011C0003060613F3F3F3F3F3F3F3F7E7C7C7C78CC
:1011D00070312101050DBFFFFFFFFFFFFFFFFFFF84
:1011E000FFFFFFFFFFFFFFFFFFFFFEFEFEFEFFFE14
:1011F000FEFEFEFEFEFEFEFEFEFFFEFEFEFEFFFF0C
:10120000FFFFFFFFFFFFFFFFFFFFFFFFFFFFFFFFEE
:10121000FFFFFFFFFF7F7FFF3F9F9F1F3FFFFFFFFE
:10122000FFFFFFFFFFFFFFFF7F3F9FCFFFFFFFFF9E
:10123000FF7FFFFFFFFFFFFFFFFFFFFFFFFFFFFF3E
:10124000FFFF9F0724480093C4C0C1C3C6E98F1F96
:101250007FFF9FCFE7F3B9DC7E3F9FCFE7F3FBFD36
:10126000FEFF7F7F7F3F3FFFFFFFFFFFFFFFFFFF8F
:10127000FFFFFCF9810000000000000001010102F5
:10128000003BF7E7CF9F9F9CBEBB8DCEC7C3C381FA
:1012900001000000000000FFFFFFFFFFFFFFFFFF56
:1012A000FFFFFFFFFFFFFEFCF8E0C0800000000032
:1012B00000000951F4A301090C070343211303099A
:1012C00009000000000000FFFFFFFFFFFFFFFFFF1E
:1012D000FFFFFF7F3F9FCFE77079FDDF7EB8E080A3
:1012E0000000000001071E1A81E0F8FCFCFEFEFC75
:1012F000FCFCFCFCFCFEFFFFFFFFFFFFFFFFFFFF0E
:10130000FFFDFCFEFFFFFFEFF7FBFDFEFFFFFFFF12
:10131000FFFEFCFCFCFCFEFFFFFFFFFFFFFFFFFFEB
:10132000FFFFFFFFFFFFFFFFFFFFFFFFFFFFFFFFCD
:10133000FFFFFFFFFFFFFFFFFFFFFFFFFFFFFFFFBD
:10134000FFFFFFFFFFFFFFFFFFFFFFFF7FFFFFFF2D
:10135000FFFFFFFFFFFFFFFFFFFFFFFFFFFFFFFF9D
:10136000FFFFFFFFFFFFFFFFFF7F63E1B981011F69
:101370000F0FC7E7E3F1F9FD7CBDD9F83CDF03F7B8
:10138000FFFFFFFFFFFFFFFFFFFFFFFFFFFFFFFF6D
:10139000FFFFFFFFFFFFFFBF1908C6E3C14040008A
:1013A00080C0033F7FFFFDFEFFEFF7F9FEBFF8FDB2
:1013B000FFFFFFFFFFFFFFFFFFFFFFFFFFFFFFFF3D
:1013C000FFFFFFFFFFFFFFFFFFFFFF7D0C0600C0D9
:1013D000E3F0F3ECC0C08103070F3FFFFFFFFFFF07
:1013E000FFFFFFFFFFFFFFFFFFFFFFFFFFFFFFFF0D
:1013F000FFFFFFFFFFFF7FD70360E0F0F8FCFFFF78
:10140000FFFFFFFFFFFF9000207076FFFFFFFFFF51
:10141000FFFFFFFFFFFFFFFFFFFFFFFFFFFFFFFFDC
:10142000FFFFFFFFFFFFFEFEFEFEFEFEFEFEFEFED6
:10143000FEFEFEFEFEFEFEFEFEFEFEFEFEFEFEFFCB
:10144000FFFFFFFFFFFFFFFFFFFFFFFFFFFFFF7F2C
:10145000FFFFFF7F7F7F7F7F7F7F7F7F7F7FFFFF1C
:10146000FFFFFFFFFFFFFFFFFFFFFFFFFFFFFF7F0C
:101470003F3F3F3F7FFFFFFFFFFFFFFFFFFF6CDBB3
:10148000B366E7CFCDDD99030B1D1D1B1F3D7D7F8F
:10149000FF7F7D7D3F7F7F6F373F1B9BDFF7F7EE41
:1014A0000D0781E0F87F7FFFFFFFFFFFFFFFFFFEDB
:1014B000FDFB76EDDBF7EFDDBA76FEFCF0F0F0E059
:1014C000E0C1810002060303051263018080C0C0F1
:1014D000E08000034C1801E0FFFFFFFFFFFFFFFF6C
:1014E000DFBF7FDEFFF7EFFFBBFFFEFDFBFFFFFF70
:1014F000FFFFFFFDF8F0606000000003070F0F1F03
:101500007FFFFFFEFCFCFFFFFFFFFFFFFFFFFFFF72
:10151000FFFFFFDDB976ED9B73F7FFFFFFFF9F9F96
:10152000C9E4E6F1F3F0F8F8F0F0F8F8F8F8FCFEAA
:10153000FFFFFFFFFFFFFFFFFFFFFFFFFFFFFFEFCB
:10154000EFEFEFEFCDCFC6C5E3E3C1E3C7C7E7C712
:10155000CFE7C7C6C7E7E7C7CFCFC7E7CFCFCFCF64
:10156000CFEFCFCFEFEFEFEFFFFFFFFFFFFFFFFF6B
:10157000FFFFFFFFFFFFFFFFFFFF7F7F7F7F7F3FBB
:10158000BFDFCFCFCF1F1F3F3F3FBFDFDFDF3F7F3B
:10159000FFFFFFFFFFFFFFFFFFFFFFFFFFFFFFFF5B
:1015A0007F1FCFF7F3BB3B7BF9FEEFEFF3F20E0F9C
:1015B000FFFDFBFDFCF8FEF607CFFFFFF9FDF4F0A1
:1015C00000413FFFFFFFFFFFFFFFFFFFFFFFFFF9AE
:1015D000040F7FFFFFFFFFF0007FFFFFFFFFFE0014
:1015E0001FFFFFFF7F7F7FFF00FFFF7F5F5F7DF3B8
:1015F000000000011F7FFFFFFFFFFFFFFFFFFF7FD6
:101600007EB0C0C70F1B0F0F02030F0D0E070700A0
:10161000008383C3434361E1E0E1E0E0E0E0E0F028
:10162000703838170F80C3FFFFFFFFFFFFFFFF7FFA
:10163000BFFDDFFEBFF7FB7EBEDA6834904860A0D6
:10164000C64785C6C6C6C6C4C1C0C0C1C1C0C2C126
:10165000E0F0F8FCFEFFFFFFFFFFFFFFFFFFFFFFD3
:10166000FFFFFFFFFFEFF7DBEDF6FBF9ECFFFBFD04
:10167000FEFFFDFFFFFFFFFFFFFFFFFFFFFFFFFF7D
:10168000FFFFFFFFFFFFFFFFFFFFFFFFFFFFFFFF6A
:10169000FFFFFFFFFFFFFFFFFFFFFFFFFFFFFFFF5A
:1016A000FFFFFFFFFFFFFFFFFFFFFFFFFFFFFFFF4A
:1016B000FFFFFFFFFFFFFFFFFFFFFFFFFFFFFFFF3A
:1016C000FFFFFFFFFFFFFFFFFFFFFFFFFFFFFFFF2A
:1016D000FFFFFFFFFFFFFFFFFFFFFFFFFFFFFFFF1A
:1016E000FFFFFFFFFFFFFFFFFFFFFFFFFFFFFFFF0A
:1016F000FFFFFFFFFFFFFFFFFFFFFFFFFFFFFFFFFA
:10170000FFFFFFFFFFFFFFFFFFFFFFFFFFFFFFFFE9
:10171000FFFFFFFFFFFFFFFFFFFFFFFFFFFFFFFFD9
:10172000FFFFFFFFFFFFFFFFFFFFFFFFFFFFFFFFC9
:10173000FFFFFFFFFFFFFFFFFFFFFFFFFFFFFFFFB9
:10174000FFFFFFFFFFFFFFFFFFFFFFFFFFFFFFFFA9
:10175000FFFFFFFFFFFFFFFFFFFFFFFFFFFFFFFF99
:10176000FFFFFFFFFFFFFFFFFFFFFFFFFFFFFFFF89
:10177000FFFFFFFFFFFFFFFFFFFFFFFFFFFFFFFF79
:10178000FFFFFFFFFFFFFFFFFFFFFFFFFFFFFFFF69
:10179000FFFFFFFFFFFFFFFFFFFFFFFFFFFFFFFF59
:1017A000FFFFFFFFFFFFFFFFFFFFFFFFFFFFFFFF49
:1017B000FFFFFFFFFFFFFF03030303030303030315
:1017C00003030303030303030303030303030303E9
:1017D00003030303030303030303030303030303D9
:1017E000030303030303030303F8FCFEFEFEFEFEF4
:1017F000FCF8F0F000008080808080000000000095
:1018000000000000000000000000000000000000D8
:1018100000000000000000000000000000000000C8
:1018200000000000000000000000000000000000B8
:1018300000000000000000000000000000000000A8
:101840000000000000000000000000000000000098
:101850000000000000000080008080000000F0F820
:10186000FCFCFEFEFEFEFCF8F8FFFFFFFFFFFFFFA3
:10187000FFFFFFFFFEFFFFFFFFFFFFFEECE0E0F0DA
:10188000C0C0E080000000000080F0FCFFFFFF8788
:101890008787C7FFFFFFFE78000080E0FCFEFF7F28
:1018A0000F1F7FFFFCE0E00000FCFEFEFFFFE7876C
:1018B00087879F3F3E3E1C001FFFFFFFFFC08080C9
:1018C000808FBFFFFFFFFC8080000000008080C091
:1018D000C0C0F0E0ECECFEFFFFFFFFFFFEFEFFFFED
:1018E000FFFFFFFFFFFFFFFFFF010141810141817A
:1018F00001018101814101010100004191014190FB
:10190000000090000080E0F8FEFFFF7F0F07070750
:10191000C7FFFFFFFEFC3800F8FEFFFF7F1F1F1E02
:101920001E1E1EFFFFFFFFF800E0E1E1E3E7C787AF
:1019300087878FFFFFFEFCF8F803FFFFFFFFFF879D
:10194000070707071F7FFFFFFFFEE08000000090F2
:1019500000011181010100804001910141910101CB
:101960009101019101019141010004328400229012
:10197000002090002412922400902012840012C4AF
:10198000C0C0C0CCC8CFCFCFCF8F0F0F0FCFCFCF1E
:10199000CF0F070101C0C0CFCFCF0F8FC0C0C0C0D5
:1019A000C0C0C0CF8F8F0F0F00C1C1C7CFCFCFCF67
:1019B000CFCF8F0F0F0F03C1C0C0800FCFCFCFCFBE
:1019C000C0C0C0C0C0C0010F8FCFCFCFCCC0C0C47B
:1019D000C0C0C410040290240290240292240092F9
:1019E000240092240000249000C0C0C904004900D3
:1019F00000094080494082010012C1F0F0FFFFFF62
:101A0000FFE7E3E3E3FFFF7F3F1F0FE0FEFFFFFF82
:101A10000F000000E0FFFFFFFF0380FFFFFFFF0359
:101A2000030307FFFFFFFFFE00FFFFFFFFFF0303AE
:101A30000707FFFFFEFE003FFFFFFFE007FFFFFF7E
:101A4000FFE3E3E3E3E380000F3F7F7FFFF3F3E394
:101A5000E7E7E7C7C78080090096490092490094EC
:101A6000490000490000C994C0FFFFFFFFFFFAF1E1
:101A7000E0801008201208E0F0FEFFFFFFC7C3C39C
:101A8000C3E3E3FFFFFF7F3F00F0FFFFFFFFDFC087
:101A9000C0C0F0FEFFFFFF7F0380FFFFFFFFFFC01E
:101AA000C0C0F0FFFFFFFF7F00FFFFFFFFFFC0C0D0
:101AB000C0E0FFFFFFFF7C003FFFFFFFF8001FFFBC
:101AC000FFFFFFC3C3C3C3C0C0C0C010F0F0F3F337
:101AD000E3C3C3C7C7FFFFFFFEF8F2002492000074
:101AE00092FCFCFEFFFFFFFFFFFFFFFFFFFFFFFF7A
:101AF000FFFFFE000056870747870707870707078E
:101B00000707030301004000000307070707070753
:101B10000707070703010100000707070707070773
:101B20000707070703030100000707070707070761
:101B3000070707070301000000070707070700075B
:101B4000070707070707070707070704000003033E
:101B50000707070707070707078350089870FEFE67
:101B6000FFFFFFFFFDFFFFFFFFFFFFFFFFFFFF3F47
:101B70003F176FA480D2C4D0D2E4DAC024D200656B
:101B800092004DB2004D320049B22008402000487A
:101B9000200048A00048F0004840004800204000D5
:101BA000B04800B04800A04800B04800B04800402D
:101BB000200048200048A00048A00048200048001D
:101BC000204800204800204800224900224D0032D1
:101BD0004500D2E480A2C4DAC0C4DAC0E4926367EC
:101BE0001F7FFFFFFFFFFFFFFFFFFFFFFFFFFFFF65
:101BF000FFFFFEFFFFFFFFFFFFFFFFFFFFFEFEFDFA
:101C0000F9F0F2ED00D26D01D27D6DD2D2E9C0D2F1
:101C1000EDC0D26D00DBF640D9B2E8DBB4EDD2A95D
:101C2000EDD2A0ADD2A0A5DA002DD280ADDA80EE43
:101C3000DB80B2C980D26DE892CDC8D2D7D0FAC8C5
:101C4000C9F2E9E9D2C0ED92804DB20049B2B0EDDF
:101C5000FAFCFDFEFFFFFFFFFFFFFFFFFFFFFEFEA1
:101C6000FFFFFFFFFFFFFFFFFFFFFFFFFFFFFFFF84
:101C7000FFFFFFFFFFFFFFFFFFFDFFFFFFFFFFFF76
:101C8000FFFFFFFFFF7F1F0F0F0703111179797906
:101C9000F9FFFFFFFEFEFDF6FFEDBEFFFDBFFFBD3E
:101CA000FFFEA3C13CFEFEFCFC7D3C3D1D42BFFD92
:101CB000FEB6FDFFF6FFFFFEFFFFFFFF0FFF8703EE
:101CC0000303FFFF07071F1F1F1F1F7E7EFFFFFF6E
:101CD000FFFFFFFFFFFFFFFFFFFFFFFFFFFFFFFF14
:101CE000FFFFFFFFFFFFFFFFFFFFFFFFFFFFFFFF04
:101CF000FFFFFFFFFFFFDFFFFFFFFFFFFFFFFFFF14
:101D0000FF0F030100000000000000FCFC000000C9
:101D1000FD0707FFFFFFFFFFFFFFFFFFFFFFFF7D47
:101D20009FE77B7C9FEEE7FBF9F1C8989000008766
:101D30007FFFFFFFFFFFFFFFFFFFFFFFFEFC0CF831
:101D4000F8FC0C0DFCFCFCF8C080E0F0F0F00003A7
:101D5000FFFFFFFFFFFFFFFFFFFFDFFFFFFFFFFFB3
:101D6000FFFFFFFFFFFFFFFFFFFFFFFFFFFFFFFF83
:101D7000FFFFFFFFFFFF1F0F0F07C1C1C1C1C1015F
:101D800001010000000000000000000303000060EB
:101D900063F0FCFFFF870701001E1E0E6E606B6B79
:101DA000790EFFFFFFFFFFFFFFFFFFFFFFFF3E0872
:101DB0006868616E0E0F1F1EC0C10707FFFFF8F7AE
:101DC000EFEF9EDEDF1F9F8F8F83C1C171F8FC395B
:101DD00039B939DDDDFDFD87070F1FFFFFFFFFFF6D
:101DE000FFFFFFFFFFFFFFFFFFFFFFFFFFFFFFFF03
:101DF000FFFFFFFFFFFFC00000000303073F3F8717
:101E00009E1E2038383838383838383838F8F8E0F6
:101E1000C2C3838080C0C0C0C0C0C0CFCFCFCFE717
:101E2000E7F8FFFFFFFFFFFFFFFFFFFFFFFFF8F8EF
:101E3000E7EFCFCFCFC7C03037878C8C8E888FC766
:101E4000C3E3F8F7676766666667676766606000A2
:101E50009E07FF7F7F0F03010000C0C1FFFFFFFF50
:101E6000FFFFFFFFFFFFFFFFFFFFFFFFFFFFFFFF82
:101E7000FFFFFFFFFFFFFFFFFFFE7E7E1E0F0F0332
:101E8000010080E0F0F0F8F8F8F8F8E060000101F7
:101E90000107077F7F7FFFFFF3F3FFFFFFFFFFFFD8
:101EA000FFFFFFFFFFFFFFFFFFFFFFFFFFFFFFFF42
:101EB000FFFFFFFFFFFFFFFFFFFFFF7FFFFF83FF2E
:101EC000FF8703016060F8F8F8F8F8F8FCECB878E0
:101ED000E1E1830F0E1E7EFEFEFFFFE7E7FFFFFF3F
:101EE000FFFFFF7FFFFFFFFFFF073F071F5F474722
:101EF0000787073F0F5F474727249C9C1C5C4424AF
:101F0000243D0DFF1F07070787BF07175C5C4424AC
:101F1000241C9C0404040405251F1F07070707074A
:101F200057071F1F0707071F1F9FDF1F0707070709
:101F30001F07070707871F071F1C05252525858401
:101F40001C1C544424242F9F9F1F070787FF05BD97
:101F50003D1D454404040C1C1C5F472727270F9F89
:101F60001F07070707073F475F000000000404043E
:101F7000000100000000000000000101000000025C
:101F8000020000000113020E010101000000000028
:101F9000020001000000000000000000000000003E
:101FA000000000000000000A010100000000000124
:101FB000000100000000000000000000000001011E
:101FC000010000000002000101020E1211010101D6
:101FD00002020200000001000000000000020001F7
:101FE00001040404020000000090400073903400DB
:101FF00073903200749034007390400073903400FA
:1020000074903200739034007490400073903400E8
:1020100073903200749034007390400073903400D9
:102020007490320073903400749040914C0073901F
:102030003481007390320074903400739040914F5B
:1020400000749034914C00739032914A0073903434
:10205000914700749040914C00739034914A007302
:102060009032914700749034914300739040810006
:102070007490349143007390320073903491450012
:10208000749040914C0073903481007490320073CE
:10209000903400739040914F00749034914C0073D1
:1020A0009032914A00739034914700749040914C63
:1020B00000739034914A00749032914700739034C9
:1020C0009143007390408100749034914300739069
:1020D0003200749034914500739040914C0073909D
:1020E0003481007490320073903400739043914FA8
:1020F00000749040914C0073903E914A0074903B64
:10210000914700739040914C0073903E914A007447
:10211000903B914700739037914300748081007326
:10212000903791430073800074903991450073900B
:1021300040914C007390348100749032007390345D
:1021400000749043914F00739040914C0073903E07
:10215000914A0074903B914700739040914C0074F9
:10216000903E914A0073903B9147007390379143A2
:1021700000748081007390379143007380007490E5
:10218000399145007390379140007490349140002C
:10219000739032913E007390349140007490379167
:1021A0004300739034914000749032913E007390DC
:1021B00034914000739037914500749034007390CF
:1021C00032914700739034914300749037007390BC
:1021D00034914000749032913E00739034913B00F2
:1021E0007390379140007490349140007390329115
:1021F0003E00749034914000739037914300739087
:1022000034914000749032913E00739034914000BC
:1022100073903791450074903491430073903291DC
:102220004000749034913B00739037913E0073905E
:102230003400749032914000739034007490379160
:102240004C00739034914C00739032914A0074901A
:1022500034914C00739037914F00739034914C003F
:10226000749032914A00739034914C00749037917D
:1022700051007390340073903291530074903491F4
:102280004F0073903700749034914C0073903291EA
:102290004A00739034914700749037914C007390CA
:1022A00034914C00739032914A00749034914C00F8
:1022B000739037914F00749034914C007390329129
:1022C0004A00739034914C00749037915100739090
:1022D00034914F00739032914C00749034914700C8
:1022E000739037914A0074903400739032914C008F
:1022F00073903400749051810073904C0074913944
:1023000090450073904F810073904A00749137900C
:1023100043007390518100739139904A0074913455
:10232000904C00739134904700749132904E00733A
:102330009134904700739137904F007491349050CE
:102340000073913290530074913490550073905102
:10235000810073904C0074913990450073904F81C7
:102360000073904A0074913790430073905181003C
:10237000749139904A00739134904C007391349069
:102380004A007491329047007391349046007491E2
:10239000379045007391349044007391329040001F
:1023A00074913400739051810073904C0074913992
:1023B00090450073904F810074904A00739137905C
:1023C00043007390518100749139904A00739134A5
:1023D000904C00749134904700739132904E00738A
:1023E0009134904700749137904F0073913490501E
:1023F0000073913290530074913490550073904A59
:102400008100749132904A00739131904A00739127
:1024100032904A0074904C8100739134904C007457
:102420009132904C00739134904C0073904F810026
:10243000749137904F00739136904F00739137909D
:102440004F00749051810073904F0074904C007352
:10245000904A0073904C00E780F0000000020009F1
:102460000F0000030401000C000000000000000049
:10247000000000000000000000000000002500280F
:10248000002B002E00310000000000240027002A4D
:10249000002D0030000404040404030405020202B9
:1024A00002040302020202060606060606040402ED
:1024B0000202040404080201104080401020408001
:1024C000408008020401804020100201108010208A
:1024D00040402000EC2711241FBECFEFDAE0DEBF22
:1024E000CDBF11E0A0E0B1E0EAE0F3E602C0059064
:1024F0000D92A83CB107D9F728E0A8ECB1E001C0E3
:102500001D92A334B207E1F712E1CBE6D2E104C099
:102510002197FE010E947D31CA36D107C9F70E947A
:102520001B280C9483310C94000080912F02089595
:10253000480F592F511D1416150684F58038910542
:102540006CF597FF02C090E080E04138510514F02F
:1025500040E850E0481BFB01E770FF2721E001C085
:10256000220FEA95EAF777FF02C0695F7F4FFB0110
:1025700033E0F595E7953A95E1F7F695FE2FEE27CE
:10258000F795E795E80FF91FEF51FC4F415030F0F8
:102590008191DF011197822B8C93F8CF08950895D4
:1025A000CF93DF93AC01E0913602F0913702309780
:1025B000F1F09091E0038091DF039817C0F090E074
:1025C000292F30E02617370754F4D901A559BC4FFD
:1025D000240F351FE90128812C939F5FF1CF1092C2
:1025E000E0036093DF03CB01DF91CF910994DF918A
:1025F000CF91089590E0FC01EC54FB4D24918B5653
:102600009B4DFC018491882399F090E0880F991FDD
:10261000FC01E957FB4DA591B491FC01E758FB4D36
:10262000859194918FB7F894EC91E22BEC938FBF46
:1026300008959091E0038091DF032FEF3FEF98170B
:1026400048F4E92FF0E0E559FC4F208130E09F5F2E
:102650009093E003C90108959091E0038091DF0316
:102660002FEF3FEF981748F4E92FF0E0E559FC4FC2
:10267000208130E09F5F9093E003C9010895FC0141
:1026800080916A03882311F13FB7F89482E0809328
:10269000E9002091F200822F90E01816190614F438
:1026A00081E090E0882339F0289844E6409369035C
:1026B0004091F1004083222339F02091F200211152
:1026C00003C02BE62093E8003FBF08958FEF9FEFF4
:1026D00008952FB7F89483E08093E9009091E80083
:1026E000892F807295FF04C09091F20080E4891BCD
:1026F0002FBF08958091610381110DC082E0809306
:102700005D0384E080935E031092600310925F0388
:1027100081E0809361038DE593E00895282F30E0F8
:10272000F901E65AFB4D9491F901EC54FB4D84916B
:102730002B563B4DF9012491222309F430C09923F3
:10274000E9F091509F30D0F4E92FF0E0E655FC4ECF
:102750000C947D31D813DC13B913D013D413BE13EA
:10276000BE13BE13DF13E513E913ED13F313BE130A
:10277000F713909180009F7790938000E22FF0E014
:10278000EE0FFF1FE758FB4DA591B4919FB7F8944A
:10279000EC91611132C080958E238C939FBF089578
:1027A000909180009F7DE8CF90918000977FE4CF4B
:1027B00094B59F7794BDE2CF94B59F7DFBCF909168
:1027C00090009F7790939000D9CF909190009F7D3B
:1027D000F9CF90919000977FF5CF9091C0009F77AF
:1027E0009093C000CBCF9091C0009F7DF9CF909186
:1027F000C200977F9093C200C1CF8E2BCECFFC0139
:102800000E941314319728F068517C4F8F4F9F4FCF
:10281000F9CFAB01FC010E941314641775078E07F2
:102820009F07C8F30895A9E5B3E02FB7F8947D9109
:102830008D919C9166B52FBFA89B05C06F3F18F482
:102840007F5F8F4F9F4F22E0660F771F881F991F72
:102850002A95D1F70895AB01FC010E941314415051
:102860005109E109F10928F068517C4F8F4F9F4FC2
:10287000F6CFAB01FC010E941314641775078E0795
:102880009F07C8F308954091290250912A02209190
:1028900027023091280242175307B4F49091E800C0
:1028A0009570E1F39091E80092FD19C08093F100DA
:1028B0008091290290912A0201968F739927892B82
:1028C00019F48EEF8093E8008091290290912A02FA
:1028D000019690932A028093290281E0089580E076
:1028E0000895DF92EF92FF920F931F93CF93DF93A0
:1028F000D82E8A01EB017B01E40EF51ECE15DF0513
:1029000059F0D7FE12C0FE0184910E944314219613
:102910008111F4CF0FEF1FEFC801DF91CF911F910D
:102920000F91FF90EF90DF9008958881EECF0F9385
:102930001F93CF93DF931F92CDB7DEB782E08983D9
:1029400042E450E062E978E080E80E9471140E945D
:102950007A13DC0112960D911C910115110589F075
:10296000D801ED91FC910280F381E02DBE016F5FF3
:102970007F4FC801099597FD04C0F80100851185B6
:10298000ECCF89810F90DF91CF911F910F91089526
:10299000615030F02091F100FC0120830196F8CFC6
:1029A000289884E6809369030895AF92BF92CF92EE
:1029B000DF92EF92FF920F931F93CF93DF936C01FF
:1029C0007B018B01040F151FEB015E01AE18BF08E0
:1029D000C017D10759F06991D601ED91FC91019092
:1029E000F081E02DC6010995892B79F7C501DF91AA
:1029F000CF911F910F91FF90EF90DF90CF90BF90FC
:102A0000AF9008958F929F92AF92BF92CF92DF9234
:102A1000EF92FF920F931F93CF93DF936C017B0193
:102A20008A0180910C01882309F45AC080916A03BD
:102A3000882309F455C080912D0280FF05C0809144
:102A4000E00082608093E000E801B12C8AEFA82EBC
:102A500093E0892E2AE3922E209711F4BB20C9F12E
:102A60000E946913811108C0AA94AA20C9F181E0CB
:102A700090E00E94FF13F0CF8C171D0611F00CF0B0
:102A80008C2F9FB7F8948092E9002091E80025FDF3
:102A900002C09FBFE1CF282F30E0C21BD30BF7014C
:102AA000815020F041914093F100FACFE20EF31EE5
:102AB000BB2021F09092E800B12CEBCF8091E80090
:102AC00085FDE7CF9092E800BB24B394209709F3EB
:102AD000F3CF5D9884E680932C02101611063CF02B
:102AE00081E090E0F6019383828310E000E0C8016A
:102AF000DF91CF911F910F91FF90EF90DF90CF90DA
:102B0000BF90AF909F908F900895CF93DF931F92C7
:102B1000CDB7DEB76983DC01ED91FC910280F381D2
:102B2000E02D41E050E0BE016F5F7F4F09950F90AF
:102B3000DF91CF91089583E08093E9008091F200C6
:102B4000882319F08AE38093E80008950E946913AE
:102B500090E00895CF93DF931F92CDB7DEB7FC01CD
:102B60008485958597FD08C02FEF3FEF3587248733
:102B70000F90DF91CF910895CE0101960E943F13EF
:102B8000019719F4898190E0F3CF8FEF9FEFF0CF99
:102B90000F931F93CF93DF931F92CDB7DEB78C01B6
:102BA000FC018485958597FF0BC0CE0101960E949C
:102BB0003F13019771F4898190E0F801958784872C
:102BC000F801848595850F90DF91CF911F910F912A
:102BD00008958FEF9FEFF1CFFC018485958597FDD8
:102BE0000BC09FB7F89482E08093E9008091F200D7
:102BF0009FBF90E0019608959FB7F89482E080937C
:102C0000E9008091F2009FBF90E00895CF92DF929B
:102C1000EF92FF921F93CF93DF93E82FF0E0EE5BEC
:102C2000FE4F1081E62FF0E0603398F5EE59F74F34
:102C3000E491CE2FD0E0F12CE12C60E074E284EF3F
:102C400090E0A7019E010E94262F215031094109E1
:102C5000510991E02115310581E0480751056CF0DB
:102C600060E970ED83E090E0A7019E010E94262FAD
:102C7000215031094109510993E0113089F0133095
:102C800039F1DF91CF911F91FF90EF90DF90CF90BE
:102C90000895EE0FFF1FEE59F84FC591D491CBCF99
:102CA000809126028111EDCF80918100887F892B50
:102CB00080938100309389002093880010928500D2
:102CC0001092840080916F00826080936F00D9CF52
:102CD00080919100887F892B809391003093990097
:102CE000209398001092950010929400D0932502A2
:102CF000C093240281E0809323028091710082605E
:102D000080937100BECFE82FF0E0EE5BFE4F808134
:102D1000813019F08330A9F0089580912602811145
:102D20000FC080916F008D7F80936F00809115029E
:102D3000E0911302F09114029081809589238083A1
:102D4000089510922302809122028111F9CF80917F
:102D50002002E0911E02F0911F02EECFCF93DF938D
:102D6000D1E0E0913002F0913102AF014F5F5F4F4F
:102D700050933102409330022491822F807FC22FE2
:102D8000CF70803821F48C2F0E948316EACF8039CF
:102D900019F5E0913D08F0913E0809958D27809343
:102DA0002102E0913002F0913102CF01019690931F
:102DB000310280933002649180913502C81788F601
:102DC000C13021F4809112028111CBCF67FDC9CFB0
:102DD0008C2F0E940616C5CF87FD3CC03296F0931B
:102DE0003102E0933002FA014491A0912402B091A3
:102DF0002502322F242F0E947A2F6C507E4F8F4F46
:102E00009F4F28EE33E040E050E00E94582F20937F
:102E10001A0230931B0240931C0250931D028091B2
:102E20001A0290911B02A0911C02B0911D02892BE5
:102E30008A2B8B2B61F481E090E0A0E0B0E08093DE
:102E40001A0290931B02A0931C02B0931D02DF9103
:102E5000CF910895803E49F48091320290913302DF
:102E600090933102809330027CCF803F09F079CF7C
:102E700010923402ECCF90913502923009F471C077
:102E8000292F30E0F901EE5BFE4F4081205F3D4F7E
:102E9000F9018083913031F420911002281302C08F
:102EA000909312029F5F9093350290E0FC01EB56E5
:102EB000FB4D24918C549B4DFC01849130E0220FFA
:102EC000331FF901E758FB4D65917491F901E957FA
:102ED000FB4DA591B4919C91982B9C93413019F096
:102EE0004330D9F0089590916400977F90936400E7
:102EF00010928000109281009091810098609093D0
:102F000081009091810091609093810070931402F0
:102F10006093130280931502089590916500977F46
:102F20009093650010929000109291009091910002
:102F3000986090939100909191009160909391008E
:102F400070931F0260931E028093200280913502CD
:102F5000882321F06CE380E00E94061680E00C9448
:102F6000831608952091ED01260F3327331F213258
:102F70003105ECF42091B103FC0190E080E02430B5
:102F800069F082E00895A091ED012191AC014353D5
:102F90005E4FA40FB52FB11D2C930196861798F3A1
:102FA0008091ED01680F6093ED0180E0089581E06C
:102FB00008951092B10381E08093B00310928B03C7
:102FC00061E082E00E948E1361E083E00E948E1334
:102FD000E9EBF0E080818E7F808380818D7F80832C
:102FE00088E48093B80085E48093BC000895CF9373
:102FF000C82F1092E0031092DF031092DE031092AC
:10300000DD030E94D9178FEC92E19093DC0380934B
:10301000DB0380ED92E19093DA038093D903CC0F28
:10302000C093BA00CF910895CF93DF9391E090932E
:10303000CC018823B9F0C091B800D091BA0080913A
:10304000BC008A7B8093BC0060E082E00E948E130B
:1030500060E083E00E948E130E94D917D093BA00DB
:10306000C093B800DF91CF910895CF92DF92EF9295
:10307000FF920F931F93CF93DF93D091DD0381E0F5
:10308000D13208F09CC0C091D8030E9413146B0188
:103090007C018091B10381116CC082E08093B10307
:1030A00081E08093B0038FEF8093AF031092AE0363
:1030B000D093AD03A8EBB3E0EDE8F3E080E0D813E4
:1030C0008DC010928C0380918C03CC0FC82BC093C1
:1030D0008C0380918B03813009F084C010928B03A4
:1030E0000E9413146B017C0180918C038093BB00C0
:1030F0008091B3039091B403A091B503B091B6034E
:10310000892B8A2B8B2BA1F00E9413140091B303FF
:103110001091B4032091B5033091B6036C197D0969
:103120008E099F09061717072807390708F442C0B8
:103130008091BC0083FDD8CF85EC8093BC000E94B9
:1031400013146B017C018091B103823009F44CC0EF
:103150008091AF038F3F09F469C08091AF03803243
:1031600009F466C08091AF03803309F463C084E042
:1031700026C08091B3039091B403A091B503B091A0
:10318000B603892B8A2B8B2B09F483CF0E9413144F
:103190000091B3031091B4032091B5033091B603AD
:1031A0006C197D098E099F0906171707280739072B
:1031B00008F06FCF8091B2030E94141885E010923E
:1031C000DE031092DD031092B703DF91CF911F91C0
:1031D0000F91FF90EF90DF90CF9008959D91919384
:1031E0008F5F6DCF85EEA9CF8091B3039091B4032B
:1031F000A091B503B091B603892B8A2B8B2B09F4D0
:10320000A2CF0E9413140091B3031091B403209134
:10321000B5033091B6036C197D098E099F09061715
:1032200017072807390708F08ECFC4CF80E0C7CF33
:1032300082E0C5CF83E0C3CF0895E091E0038091A1
:10324000DF03E81730F4F0E0E559FC4F808190E0AF
:1032500008958FEF9FEF08958091DF039091E00331
:10326000891B990B0895CF92DF92EF92FF920F93F3
:103270001F93CF93DF937C01CB018A012091B70389
:10328000222389F0EB016B01C40ED51ECC15DD05A0
:1032900069F06991D701ED91FC910190F081E02DE9
:1032A000C7010995F3CF642F0E94B217C801DF91BF
:1032B000CF911F910F91FF90EF90DF90CF900895E5
:1032C000CF93DF931F92CDB7DEB769832091B70309
:1032D0002223F9F02091DD03203258F021E030E084
:1032E000FC013383228390E080E00F90DF91CF9147
:1032F00008958091DE03E82FF0E0E854FC4F9981B7
:1033000090838F5F8093DE038093DD0381E090E004
:10331000ECCF61E0CE0101960E94B217F7CF682F83
:1033200081E398E00C94601990E00C94FF138FB146
:103330008095807F669B88601C9B8460089590E1E7
:10334000282F81E061FD84E060FD880F62FD829599
:10335000687F969FD0011124A20FAF51BC4F0C90F3
:10336000082A40FF08260C92089590E0E1EEF3E071
:1033700091119FEF8FEF919391939193919381503E
:10338000D0F710920F0310920E03109211031092B7
:10339000100308956F927F928F929F92AF92BF9287
:1033A000CF92DF92EF92FF920F931F93CF93DF9311
:1033B0006D3089F0C0900E03D0900F036A30E1F4B5
:1033C000109211031092100388E0C80ED11CD09205
:1033D0000F03C0920E0381E090E0DF91CF911F9127
:1033E0000F91FF90EF90DF90CF90BF90AF909F90A4
:1033F0008F907F906F90089560900001E09010038F
:10340000F0901103E5E06E9FE0011124CE53DD4FF3
:10341000570100E010E0053029F0CE010196FE01D1
:103420001491EC01460188E0782E412F417010FD87
:1034300023C0662061F0F0E8AF16B10440F480E4E8
:103440008816910420F4B401C5010E949F191695B5
:103450007A94EFEF8E1A9E0A7110E7CF0F5FFFEF9D
:10346000AF1ABF0A0630B1F686E0E80EF11CF09202
:103470001103E0921003AFCF462DDDCF9091CB0129
:10348000982329F49091CA01982381E009F480E0FF
:1034900008958091CA018093CB010E94971980936F
:1034A000CA010895E1EEF3E080E0A0E0B8E000801A
:1034B0000EBC8111012C1197A0FDFDCF0192B9F72F
:1034C0000DB408952F923F924F925F926F927F9228
:1034D0008F929F92AF92BF92CF92DF92EF92FF9224
:1034E0000F931F93CF93DF9300D000D000D0CDB7C0
:1034F000DEB76E2C402E512CF201E60FF71F1E1680
:103500001F060CF08DC0603471050CF089C0A22E2E
:10351000B12C262F2770722E37E0430E511C23E06A
:10352000559447942A95E1F733E0759567953A9558
:10353000E1F7262F660F330B3C832B833695322F12
:10354000222737952795280F391F2F513C4FDA0135
:1035500010E000E0EB80FC80E00EF11E48E0E41695
:10356000F1040CF05DC06FEFE616F6060CF44EC0E9
:103570009E838D8350E040E0490170E8870E911CE6
:103580006D817E816F3F7F4F81F1FD01E40FF51F5B
:10359000E491F0E0BF01072C02C0660F771F0A9488
:1035A000E2F77A8369837FEFE716F70609F459C0DB
:1035B0006901C40ED51EF6013080F1E06F1249C0DA
:1035C000362AF6013082772081F0F7E0EF16F10419
:1035D00061F06401C40ED51EF6013080F1E06F1277
:1035E0003CC06A81362AF60130824F5F5F4F6D81A1
:1035F0007E816F5F7F4F7E836D834A155B0534F458
:103600006D817E816038710509F0BACF0F5F1F4F61
:1036100020583F4FAA0DBB1D4016510609F09ACF06
:1036200026960FB6F894DEBF0FBECDBFDF91CF91C7
:103630001F910F91FF90EF90DF90CF90BF90AF90D0
:103640009F908F907F906F905F904F903F902F90C2
:103650000895298020943220B4CFEA81E0953E225B
:10366000C2CF7110B6CFC1CFDF92EF92FF920F930E
:103670001F93CF93DF937C01D22E8B01040F111D7A
:10368000EB0177FF02C0D0E0C0E0C80101341105B2
:1036900014F080E490E0C817D9075CF480E8E816DD
:1036A000F10428F44D2DBE01C7010E949F192196F7
:1036B000ECCFDF91CF911F910F91FF90EF90DF90B2
:1036C0000895CF92DF92EF92FF920F931F93CF93C3
:1036D000DF936B01122FEC017C01E40EF11CCE157F
:1036E000DF0544F4202F412FB601CE010E94341B88
:1036F0002196F5CFDF91CF911F910F91FF90EF9021
:10370000DF90CF900895AF92BF92CF92DF92FF9259
:103710000F931F93CF93DF93EC01EA81FB81C88065
:10372000D9808D89882309F493C080910A039091F0
:103730000B036CE370E00E9455314E9708F088C08F
:10374000BF016F5F7F4F01E027E048E0C6010E94A4
:10375000611B8A819B810196288139812F5F3F4FB0
:10376000309311032093100390930F0380930E0363
:1037700010920001888D998D62E2019709F063E152
:103780008FE398E00E94CA1981E0809300018F8541
:10379000882361F06A817B816F5F7F4F8881998187
:1037A00000E026E046E001960E94611B4E895F8999
:1037B0004115510509F442C025E030E0241B350BCA
:1037C0008BE090E0841B950BF82EFF0CCA80DB8009
:1037D00082E0C81AD108C21AD30A0881198102509E
:1037E0001109021B130B80E4C816D10428F44F2DD5
:1037F000B601C8010E949812AF2CB12CB6016A0D17
:103800007B1D615071096034710520F44F2DC80192
:103810000E94981221E04F2DB601C8010E94341B6E
:10382000C8018A0D9B1D21E04F2DB60101970E9412
:10383000341B8E899F8901979F8B8E8BDF91CF914F
:103840001F910F91FF90DF90CF90BF90AF900895A0
:1038500001E028E048E0BF0179CF2F923F924F92DC
:103860005F926F927F928F929F92AF92BF92CF9210
:10387000DF92EF92FF920F931F93CF93DF9385E038
:10388000C82ED12C9091DF038091E003981709F4A2
:10389000D5C00E942C13811152C080915003909189
:1038A0005103C4E3D3E0019711F4C8E1D3E00E94CF
:1038B0002C13B82E0E942C13412C84299B29998308
:1038C00088830E942C13B82E0E942C13612C862909
:1038D0009B299B838A830E942C13682F880F770B68
:1038E000880B990B0E9433306C837D838E839F837A
:1038F0000E942C13682F880F770B880B990B0E945E
:103900003330688779878A879B870E942C1321E050
:10391000892B09F420E02F870E942C1321E0892BAA
:1039200009F420E02A8B0E942C139D878C870E942B
:103930002C1321E0892B09F420E02D8BA3CF8130BB
:10394000D1F50E942C130E942C13282E0E942C13B8
:10395000382E0E942C135C018090500390905103EC
:10396000C8E1D3E081E08816910411F4C4E3D3E008
:10397000622D220C770B880B990B0E9433306C83DD
:103980007D838E839F83632D330C770B880B990B7C
:103990000E943330688779878A879B87BD86AC868B
:1039A000E8E1F3E082E08816910411F4E4E3F3E047
:1039B000D78AC68A67CF823009F064CFCEE0D1E0E3
:1039C000A880B9800E942C13982E0E942C1300E02E
:1039D000802B9929998388830E942C13982E0E940A
:1039E0002C13E12C8E2999299B838A830E942C1306
:1039F0009D838C830E942C1321E0892B09F420E005
:103A00002E830E942C13082E000C990B98878F830D
:103A10008091C901882379F0888199818A199B094D
:103A20009A8789872B9681E0CA33D80749F681E0C7
:103A30008093C90127CF1A861986F4CFDF91CF91E1
:103A40001F910F91FF90EF90DF90CF90BF90AF90BC
:103A50009F908F907F906F905F904F903F902F90AE
:103A600008950F931F93CF93DF938C01EB01809107
:103A70005003909151030197A1F188E091E0909358
:103A8000B7038093D8031092DE031092DD0361E048
:103A900081E398E00E946019F801828990E00E9419
:103AA0008F196C817D818E819F810E94FB2F862FD3
:103AB000660F990B0E948F19688579858A859B8589
:103AC0000E94FB2F862F660F990B0E948F198C8501
:103AD0009D850E948F19DF91CF911F910F910C94BA
:103AE000351889E0CBCFCF93DF93C0915003D091AD
:103AF000510388E0C130D10509F489E091E0909349
:103B0000B7038093D8031092DE031092DD0360E0C8
:103B100081E398E00E946019219709F442C0C8E14E
:103B2000D3E09981892F990F990B0E948F19888171
:103B3000998199270E948F199B81892F990F990B41
:103B40000E948F198A819B8199270E948F196C810D
:103B50007D818E819F810E94FB2F862F660F990B9E
:103B60000E948F19688579858A859B850E94FB2F25
:103B7000862F660F990B0E948F198F8590E00E9407
:103B80008F198A8990E00E948F198C859D850E94EB
:103B90008F198D8990E00E948F19DF91CF910C943D
:103BA0003518C4E3D3E0BDCFCF92DF92EF92FF92FE
:103BB0000F931F93CF93DF93C8E3D2E08A898823C2
:103BC000A9F018896C817D818E819F810E94FB2FD5
:103BD0006B01688179818A819B810E94FB2FCB01D7
:103BE00001E0212F412FB6010E94611B659683E001
:103BF000CA30D80719F7DF91CF911F910F91FF902D
:103C0000EF90DF90CF9008950F931F93CF93DF93A2
:103C1000C8E3D2E005E010E08A89882351F12885C5
:103C200039854A855B85688179818A819B810E947B
:103C30008A2F688379838A839B832C853D854E8573
:103C40005F856C817D818E819F810E948A2F6C832C
:103C50007D838E839F838B899C89181619069CF41B
:103C600001979C8B8B8B88899989181619060CF003
:103C70001A8A659683E0CA30D80771F6DF91CF9132
:103C80001F910F910895888999890197998B888B45
:103C90001C8B0B8BE8CF2F923F924F925F926F92CB
:103CA0007F928F929F92AF92BF92CF92DF92EF92CC
:103CB000FF920F931F93CF93DF9300D000D01F92FA
:103CC000CDB7DEB79D838C832AE939E949E95EE304
:103CD000FC0160857185828593850E948A2F6B0126
:103CE0007C01EC81FD81C086D186E286F38644802A
:103CF00055806680778000811181A280B38020E0AA
:103D000030E0A901C301B2010E94F62F882309F413
:103D100001C120E030E040E05FE3C301B2010E9456
:103D2000E8302B013C01EC81FD81448255826682A2
:103D3000778220E030E0A9010E94E33018160CF0F1
:103D4000D9C02DEC3CEC4CEC5DE3C301B2010E9408
:103D5000F62F87FDD9C020E030E040E05FE3C301EB
:103D6000B2010E948A2F0E94FB2F060F171FEC81C1
:103D7000FD811183008320E030E0A901C701B60175
:103D80000E94E33018160CF0E9C020E030E040E07B
:103D90005FE3C701B6010E948A2F0E94FB2F6A0DC4
:103DA0007B1DEC81FD81738362838EE0E82E81E0D0
:103DB000F82EB12CA12C912C812C19821801F7E03E
:103DC0002F0E311CF70180819181281639060CF4E1
:103DD00043C024813581820F931F08171907E4F52A
:103DE000EC81FD8162817381685F7F4FF701C28042
:103DF000D3806C157D0584F1072E000C880B990B80
:103E00000E943330EC81FD812085318542855385C8
:103E10000E94892F2B013C01B6010D2C000C880B50
:103E2000990B0E9433309B01AC01C301B2010E9487
:103E3000F62F18168CF0F8E0CF1AD108EC81FD812E
:103E4000D382C28210861186128613861686BB82A2
:103E5000AA824701F1E0F9838FEFA81AB80A9BE024
:103E6000E90EF11CE4E0AE16B10409F0ABCFF98124
:103E7000FF2309F487C08A819B81039791F4811401
:103E8000910479F0F40161857285072E000C880B8E
:103E9000990B0E943330EC81FD81648375838683A6
:103EA000978317FF06C080E890E0EC81FD81918345
:103EB0008083EC81FD81808191818138910514F0AE
:103EC000118210820F900F900F900F900F90DF9142
:103ED000CF911F910F91FF90EF90DF90CF90BF9007
:103EE000AF909F908F907F906F905F904F903F909A
:103EF0002F9008952DEC3CEC4CEC5DEBC301B2012E
:103F00000E94E330181634F4EC81FD81148215828E
:103F100016821782EC81FD8144805580668077800F
:103F200020E030E0A901C301B2010E94E33018167D
:103F30000CF411CF20E030E0A901C301B2010E94CE
:103F4000F62F70E060E087FF10CF20E030E040E027
:103F50005FE3C301B2010E94892F05CF20E030E06A
:103F6000A901C701B6010E94F62F70E060E087FF4B
:103F700016CF20E030E040E05FE3C701B6010E94C9
:103F8000892F0BCFEC81FD8182819381C9970CF43D
:103F900088CF88E390E0EC81FD8193838283108653
:103FA00011861286138616867CCF0F931F93CF93AC
:103FB000DF93EC010E94971985FF6BC080E090E0D1
:103FC000A0E8B0EC8C839D83AE83BF8311E088E0D2
:103FD0000E943E1A082F8823E1F08E85811119C0B6
:103FE00080E090E0A0E4B0EC88879987AA87BB873F
:103FF00011E01E878DEB90E09093330280933202A4
:1040000090933102809330020E94AE1610933402D6
:10401000102F0E94971982FF09C08B899C890196F5
:104020009C8B8B8B4F9714F081E08A8B8091CB0116
:1040300082FF1EC08091CA0182FD1AC081E08F8775
:104040008A89811130C08AE090E0998B888B1C8A24
:104050001B8A8CEA90E09093330280933202909313
:104060003102809330020E94AE1681E080933402C8
:104070008889998918161906CCF40197998B888B31
:104080001123D1F080E08D8BDF91CF911F910F91A3
:1040900008950E94971910E086FF99CF80E090E084
:1040A000A0E8B0E48FCF84E190E0CFCF1F861A8ADA
:1040B0001111E8CF81E0E7CF8F858111E3CFFACFEF
:1040C000CF93DF93AEE0B1E02D913C9111972B5F40
:1040D0003F4F12968D919C911397089758E1E8E312
:1040E000F3E0EF01452F19924A95E9F7E4E3F3E095
:1040F000318320839383828368E770E075876487C8
:1041000041E0458B81E090E0918F808F1B962D914F
:104110003C911C972B5F3F4F1D968D919C9108976A
:10412000ECE1F3E0DF011D925A95E9F7E8E1F3E0F5
:10413000318320839383828375876487458B82E0F4
:1041400090E0918F808FDF91CF910895089590E056
:1041500080E00895FC0101900020E9F73197AF015C
:10416000481B590BBC018FE398E00C94D514CF93F6
:10417000DF93EC010E94B51988E290E0909311035F
:10418000809310038EE190E090930F0380930E03D1
:104190008BE791E0219711F484E891E00E94AA2036
:1041A0000E94521A8FEE90E0909333028093320275
:1041B00090933102809330020E94AE1681E080938A
:1041C00034020E949719C82F882319F00E94491AB7
:1041D000F8CF64EF71E080E090E00E942B140E9421
:1041E000491A88E00E943E1A811105C084E00E94AD
:1041F0003E1A8823A1F380913502C81728F48C2F2A
:104200000E948316CF5FF7CF10923402DF91CF91D7
:1042100008958F929F92AF92BF92CF92DF92EF92CA
:10422000FF920F931F93CF93DF93CDB7DEB7A19784
:104230000FB6F894DEBF0FBECDBF6C01990FEE082C
:10424000FF08F7FE41C06DE28FE398E00E94CA19B3
:104250008C0122273327A9012C193D094E095F093A
:1042600019A2CE0181967C019AE0892E912CA12C75
:10427000B12CCA01B901A50194010E94582F605DBB
:10428000F70162937F01211531054105510589F739
:1042900090E080E0309719F0CF010E94AA20800FB3
:1042A000911FA1960FB6F894DEBF0FBECDBFDF9170
:1042B000CF911F910F91FF90EF90DF90CF90BF9023
:1042C000AF909F908F900895A701960119A28E013B
:1042D0000F5D1F4F8AE0C82ED12CE12CF12CCA01B2
:1042E000B901A70196010E94582F605DF801629301
:1042F0008F01211531054105510589F790E080E0D6
:10430000309779F2CF010E94AA20CBCF85ED809320
:10431000BC008091B3039091B403A091B503B09118
:10432000B6030796A11DB11D23E0B695A7959795F5
:1043300087952A95D1F72091BC0024FD03C01092E7
:10434000B10308954091B3035091B4036091B50354
:104350007091B603452B462B472B69F30097A105B7
:10436000B10541F025E32A95F1F700000197A10975
:10437000B109E1CF8091B2030C9414182F923F92AF
:104380004F925F926F927F928F929F92AF92BF9265
:10439000CF92DF92EF92FF920F931F93CF93DF9311
:1043A0006C014B01CA01E5E0F0E0BF010E946931F8
:1043B0002B01C901BF010E9469313B01C8E3D2E072
:1043C0000D2C000CEE08FF08092C000CAA08BB08F5
:1043D00005E010E083E0282E312C8A8981113EC04F
:1043E000C701B6010E943330688379838A839B8337
:1043F000C501B4010E9433306C837D838E839F831B
:104400000E94582EB8010E946931BC0162507109A6
:10441000640D751D072E000C880B990B0E9433301C
:10442000688779878A879B870E94582EB8010E94E7
:104430006931BC0162507109660D771D072E000CB1
:10444000880B990B0E9433306C877D878E879F87FE
:10445000398A288A81E08A8B1C8B0B8B659683E0D6
:10446000CA30D80709F0B9CFDF91CF911F910F91D2
:10447000FF90EF90DF90CF90BF90AF909F908F9084
:104480007F906F905F904F903F902F900895BF92D4
:10449000CF92DF92EF92FF920F931F93CF93DF9310
:1044A0008C01EB01FC01B28822E030E0BB2011F06E
:1044B00025E030E0EC84FD8488E790E08E199F09C8
:1044C00064E170E00E9469316B01C20ED31EF801F5
:1044D0002081318188819981281739070CF066C0C5
:1044E000B60183E0660F771F8A95E1F7072E000C6F
:1044F000880B990B0E9433306C837D838E839F835E
:10450000662777276C197D09072E000C880B990BFD
:104510000E943330688779878A879B8788E090E09C
:10452000BB2011F082E190E0E81AF90AFD86EC86E2
:1045300084E190E09B8F8A8FF8011786118A108A98
:10454000128A85E090E0978B868B87ED90E09093C0
:1045500033028093320290933102809330020E94A2
:10456000AE1681E080933402688579858A859B85C3
:104570000E94FB2F6B016C817D818E819F810E9447
:10458000FB2FEA81FB813496A881B9819601AB01AA
:10459000BF01CD010496DF91CF911F910F91FF9044
:1045A000EF90DF90CF90BF900C94BE2128EFA60132
:1045B0002403B001259F700D112498CF0F920FB6E0
:1045C0008F939F93EF93FF93809154038D5F8D376B
:1045D00008F08D5780935403E5E5F3E080818E4F1A
:1045E000808391819F4F918382818F4F82838381CA
:1045F0008F4F8383E9E5F3E080818F5F8083818142
:104600008F4F818382818F4F828383818F4F8383FA
:104610008FB18F6066991C9B88278F3681F48091BB
:104620005303981B963068F0E0E0F8E087E780835A
:10463000818388E180936000F0936000FFCF9093C6
:104640005303FF91EF919F918F910FBE0F9018959B
:104650001F920F920FB60F9211248F939F93809108
:10466000E1009091E100937F9093E10083FF0FC000
:104670001092E90091E09093EB001092EC0092E32D
:104680009093ED0010926A0398E09093F00082FFFF
:1046900022C093E09093E9009091F200992319F0E1
:1046A0009AE39093E80090912C02992341F0909125
:1046B0002C02915090932C02911101C05D9A90911F
:1046C0006903992341F09091690391509093690394
:1046D000911101C0289A84FF18C08091E2008E7E5B
:1046E00081608093E2008091E1008F7E8093E10001
:1046F00080912D028E7E806180932D029F918F91FB
:104700000F900FBE0F901F90189580FFF7CF8091EC
:10471000E2008E7E80618093E2008091E1008E7ED7
:104720008093E10080912D028E7E8160E5CF1F9203
:104730000F920FB60F921124CF92DF92EF92FF9259
:104740000F931F932F933F934F935F936F937F9399
:104750008F939F93AF93BF93EF93FF93CF93DF9389
:10476000CDB7DEB76C97DEBFCDBF1092E900809168
:10477000E80083FF25C068E0CE0145960E94C8147A
:1047800082EF8093E8008D8987FF39C09091E8001F
:1047900090FFFCCF982F907609F034C19E894F8905
:1047A000588D2F89F88C911131C0803861F5809136
:1047B0002E028093F1001092F1008EEF8093E800BA
:1047C0006C960FB6F894DEBF0FBECDBFDF91CF91D0
:1047D000FF91EF91BF91AF919F918F917F916F91D9
:1047E0005F914F913F912F911F910F91FF90EF900B
:1047F000DF90CF900F900FBE0F901F9018959EEFF7
:104800009093E800C7CF1092F100D5CF913059F4C2
:104810008111D3CF4130510581F680912E028D7FD9
:1048200080932E02CACF933049F48111C6CF413014
:10483000510519F680912E028260F2CF953041F435
:104840008091E80080FFFCCF20682093E300B5CF83
:10485000963009F0A9C00B8D1C8D22E01092E90062
:1048600010922A0210922902F2122EC010922802EF
:10487000109227020E9497141F8299E09983FA826E
:1048800091E09E8390EA98879AEF99872091290278
:1048900030912A02275F3F4F3C832B838D831092F8
:1048A000E90010922A021092290210932802009324
:1048B000270249E050E0BE016F5F7F4F80E00E9419
:1048C00071140E94971479CF109328020093270245
:1048D0000E947A13DC0112960D911C9101151105AD
:1048E00009F451C1D801ED91FC910480F581E02DCE
:1048F000BE016B5E7F4FC8010995009709F03EC16C
:10490000F80100851185EACFF3E0FF120EC08F8910
:10491000882309F440C0823061F440E867E086EF04
:1049200098E00E94B927811148CF81E28093EB0083
:1049300047CF813029F440E86BE08AEE98E0F1CF70
:10494000833099F70E947A13DC011296ED90FC9067
:104950008E010F5F1F4F6801E114F10479F0D70158
:10496000ED91FC910680F781E02DB801C701099512
:10497000080F111DF701E084F184EECFD8011C92DD
:10498000F60101900020E9F73197BF016C197D090C
:1049900040E0C601C6CF64ED78E0FB01449150E0F1
:1049A00080E80E94711409CF973009F4BECF983087
:1049B00021F481E08093F10000CF993009F0FDCE21
:1049C000837009F0B2CFE5E4F1E081E031E096E3F5
:1049D0002191222371F08093E9003093EB00DF01F5
:1049E00011972C912093EC009093ED008F5F87300E
:1049F00079F78EE78093EA001092EA008F8980931E
:104A00006A03DBCE8B8D9C8D1092E90010922A02F6
:104A1000109229029093280280932702898D811198
:104A200092C08E899D89913A49F4813209F07DCFF7
:104A300047E050E065E071E080E0B3CF913209F0EB
:104A400074CF833269F48F89988DB0E0A0E08093B1
:104A5000010190930201A0930301B0930401ADCE34
:104A6000803269F48091E80082FFFCCF67E085E046
:104A700091E00E94C8148BEF8093E8009ECE8232B2
:104A800009F09BCE8F8980930C01EEEFFFE78591B3
:104A900094918B3F9C4D51F1E0E0F8E0809105014D
:104AA00090910601A0910701B0910801803B9440CC
:104AB000A105B105F1F480910C0180FD1AC0EE3F13
:104AC0008AE0F80789F587E797E7918380838091EB
:104AD000600080932B0288E19BE00FB6F894A895C4
:104AE000809360000FBE9093600067CEEEEFFAE017
:104AF000D5CF808191818737974709F05ECEA89501
:104B00008091600088618093600080912B02809387
:104B10006000EE3F2AE0F20789F08091FE0A909152
:104B2000FF0A9183808349CE8081918187379807DE
:104B300051F29093FF0A8093FE0AC5CF1092FF0AAC
:104B40001092FE0A3ACE0E947A13DC0112960D9161
:104B50001C910115110509F4E8CED801ED91FC91E5
:104B60000190F081E02DBE016B5E7F4FC801099579
:104B7000811123CEF80100851185EBCF1816190697
:104B80000CF41BCED2CEF1E0FF12BECE68ED78E081
:104B900004CF1F920F920FB60F9211242F933F93C1
:104BA0004F935F936F937F938F939F93AF93BF9335
:104BB000EF93FF9380912302882389F08091220252
:104BC00081110DC080912102811109C090912002B4
:104BD000E0911E02F0911F028081892780838091DD
:104BE0003402882329F180911A0290911B02A0912E
:104BF0001C02B0911D02892B8A2B8B2BC9F080914E
:104C00001A0290911B02A0911C02B0911D02019703
:104C1000A109B10980931A0290931B02A0931C0270
:104C2000B0931D02892B8A2B8B2B11F40E94AE1698
:104C3000FF91EF91BF91AF919F918F917F916F9174
:104C40005F914F913F912F910F900FBE0F901F904A
:104C500018951F920F920FB60F9211248F939F9366
:104C6000AF93BF93EF93FF9380912602882309F4BB
:104C700054C08091160290911702A0911802B09131
:104C80001902892B8A2B8B2BA1F190911502E091AF
:104C90001302F0911402808189278083809116028B
:104CA00090911702A0911802B091190218161906D6
:104CB0001A061B069CF48091160290911702A0918F
:104CC0001802B09119020197A109B1098093160247
:104CD00090931702A0931802B0931902FF91EF91DD
:104CE000BF91AF919F918F910F900FBE0F901F902A
:104CF0001895109222021092260280916F008D7FEB
:104D000080936F0080911502E0911302F0911402DC
:104D10009081809589238083E1CF80912102811148
:104D2000DDCF90911502E0911302F0911402808181
:104D30008927F1CF1F920F920FB60F9211242F9354
:104D40003F934F935F936F937F938F939F93AF9313
:104D5000BF93EF93FF938091B900887F803609F469
:104D60004AC0F0F5883209F4A7C018F5803109F47B
:104D70009BC0B8F4882309F4F9C0883009F494C0C2
:104D8000FF91EF91BF91AF919F918F917F916F9123
:104D90005F914F913F912F910F900FBE0F901F90F9
:104DA0001895883109F488C0803251F78093AF0399
:104DB00014C0803409F49DC040F48033B9F38833C3
:104DC000F9F68093AF0385ECB0C0803509F485C057
:104DD000883509F496C0883499F60E948621D0CF90
:104DE000883909F48CC038F5883729F050F48836B2
:104DF00011F0803729F683E08093B10310920F02FF
:104E000057C0883809F47BC0803919F0803809F020
:104E1000B7CF80910F02803208F071C0E0910F028D
:104E200081E08E0F80930F028091BB00F0E0E15192
:104E3000FE4F80833DC0803B39F0E0F4803A09F4B6
:104E400079C0883A09F09CCF84E08093B103109236
:104E5000EE011092ED01E091DB03F091DC03099586
:104E60008091ED0181110FC081E08093ED011092DE
:104E7000CD0109C0803C09F4A6CF883C09F4A3CF3A
:104E8000883B09F07DCFE091EE0181E08E0F8093A9
:104E9000EE01F0E0E353FE4F80818093BB009091E0
:104EA000EE018091ED0129C080918C038093BB00BD
:104EB00085EC8093BC0064CF9091AE038091AD03EC
:104EC000981758F5E091AE0381E08E0F8093AE0302
:104ED000F0E0E357FC4F8081E9CFE091AE0381E041
:104EE0008E0F8093AE038091BB00F0E0E357FC4F40
:104EF00080839091AE038091AD039817C8F285E846
:104F0000D8CFE091AE0381E08E0F8093AE03809105
:104F1000BB00F0E0E357FC4F80838091B003811128
:104F20005CCF81E080938B0384EA8093BC00109275
:104F3000B10326CF85EC8093BC001092B103809121
:104F40000F02803230F4E0910F02F0E0E151FE4FA9
:104F5000108260910F0270E0E091D903F091DA03C2
:104F60008FEE91E0099510920F020ACF1092AF03D5
:104F700034CFEF92FF920F931F93CF93DF93F82ECE
:104F8000192FE62E042F81E0860F880F0E9443140C
:104F900083E00E944314CF2DD12FEC0EFD2EF11C87
:104FA000CE15DF05B9F007FF13C0FE0184910E9402
:104FB0004314182F80E00E9443148123219681110D
:104FC000EFCFDF91CF911F910F91FF90EF90089558
:104FD0008881EDCF81E0F5CFE1EEF7E01382128218
:104FE00088EE93E0A0E0B0E084839583A683B78346
:104FF0002FE431E0318320832FEF3FEF3587248783
:10500000E1E3F8E01382128284839583A683B78359
:1050100081E691E091838083EFE3F8E013821282CE
:1050200083E791E09183808385E992E190933E0844
:1050300080933D080895789483E084BD83E085BD26
:1050400081E080936E00E1E8F0E083E08083E0E8B7
:1050500081E08083E1E983E08083E0E981E080838F
:10506000E1EC87E08083E3EC81E08083E0EC82E0A8
:105070008083E2EC81E08083EAE787E080838068D8
:10508000808310926A0310922E0210922D0280915A
:10509000D70081608093D70080EA8093D80089B5DB
:1050A000806189BD89B5826089BD09B400FEFDCFEC
:1050B00081E090E00E94FF138091D8008F7C806196
:1050C0008093D8008091E000807F8093E000809101
:1050D000E1008E7E8093E1008DE08093E200559A9E
:1050E000209A81EC80937C0081EF85B987EE84B9AA
:1050F00084E38BB984EF8AB9769A6E9880EF81BB8E
:1051000010BA80E58CBD81E08DBD85E00E949419C8
:105110005F9A85E00E9494195C98EEEFF8E0859123
:105120008EBD00000DB407FEFDCFEB30C1F75C9AD9
:1051300081E88093640081E0809365000E94521AA8
:105140000E94971987FF15C05C9885EA8EBD000004
:105150000DB407FEFDCF5C9A2E982F982D98809164
:10516000640080628093640081E083BF889513BEF1
:10517000FCCF0E94971982FF37C02D980E94971983
:1051800084788438A1F42D9A88EC0E9494192F9881
:105190006FEF82E090E00E94142F84EF91E00E9474
:1051A000FF132F9A0E94971984788438D9F30E94AC
:1051B000971984718431A1F42D9A88EC0E94941976
:1051C0002E9860E082E090E00E94142F84EF91E03E
:1051D0000E94FF132E9A0E94971984718431D9F38B
:1051E00088EC0E949419C5CF2D9A82E090E00E942D
:1051F0000C2F882309F447C03E9A3F9A81E08093A0
:105200002F028FEF9FEF9093EE078093ED0785E0DD
:105210000E94FA128DE00E94FA1260E08DE00E9476
:105220008E1385E00E943B178DE00E943B17809112
:10523000340281110FC089EE9FE190933302809375
:10524000320290933102809330020E94AE1681E0C8
:1052500080933402809164008F778093640085E4AA
:105260008093BC001092B90088E48093B8000E943B
:10527000B51981E280930D010E949719882341F0AE
:105280000E94491AF9CF10922F023E983F98B9CF49
:10529000D12CC12CC0E4D0E036E0232E312C48E5DF
:1052A000442E512C612C712C0E94B5190E94041EB1
:1052B0000E94D41DC431D1055CF1CE01B1010E9420
:1052C0006931019729F50E94B42E4B015C010E94BF
:1052D000B42E2EE130E040E050E00E94262F7B010A
:1052E0008C012AE0E20EF11C011D111DC501B40163
:1052F000A30192010E94262FDC01CB014496A11D3F
:10530000B11D30E020E050E040E0B7010E94BE2136
:10531000EE24E39400E820E849EE57E1BE0190E076
:1053200080E00E94621AC73C8FEFD80734F06AE031
:1053300070E080E090E00E942B145E0193E4A90EDF
:10534000B11C29E0A216B10408F04DC0E12C02E323
:1053500022E34BE856E16FEF7FEF8FE490E00E948D
:10536000621AEE24E39400E320E34BE655E170E09B
:1053700060E080E590E00E94621A85E0A816B10422
:1053800090F5E12C02E322E34BE856E167E070E0A0
:1053900087E290E00E94621AEE24E39400E320E3A7
:1053A0004BE454E168E070E088E290E00E94621A09
:1053B00093E0A916B104B8F4E12C02E322E34BE830
:1053C00056E16FE070E08FEF9FEF0E94621AEE24CB
:1053D000E39400E320E34BE253E160E170E090E00E
:1053E00080E00E94621A5E012BE5A20EB11C8FE0E4
:1053F000A816B10408F04DC0E12C02E322E34BE80B
:1054000056E16FEF7FEF8FEF9FEF0E94621AEE245D
:10541000E39400E320E34BE052E170E060E090E0D1
:1054200080E00E94621A9AE0A916B10490F5E12C7E
:1054300002E322E34BE856E167E070E087E290E0A8
:105440000E94621AEE24E39400E320E34BEE50E165
:1054500068E070E088E290E00E94621A27E0A216FD
:10546000B104B8F4E12C02E322E34BE856E16FE02B
:1054700070E08FE490E00E94621AEE24E39400E36F
:1054800020E34BEC5FE060E170E080E590E00E949B
:10549000621A5E018BE6A80EB11C9FE0A916B1044A
:1054A00008F071C0E12C02E322E34BE856E16FEF14
:1054B0007FEF8FE490E00E94621AEE24E39400E311
:1054C00020E34BEA5EE070E060E080E590E00E945F
:1054D000621A2BE0A216B10490F5E12C02E322E35C
:1054E0004BE856E167E070E087E290E00E94621AC4
:1054F000EE24E39400E320E34BE85DE068E070E035
:1055000088E290E00E94621A88E0A816B104B8F41C
:10551000E12C02E322E34BE856E16FE070E08FEF0D
:105520009FEF0E94621AEE24E39400E320E34BE62F
:105530005CE060E170E090E080E00E94621A0E940E
:10554000491ACA379FEFD90744F027E0C216D104A1
:105550000CF06BC08FEFC81AD80A0E94521A88E06C
:105560000E943E1A811106C084E00E943E1A8823E0
:1055700009F49ACE0E949719C82F882309F459C0BC
:105580000E94491AF7CFC4399FEFD907C4F6E12C1E
:1055900002E322E34BE856E16FEF7FEF8FE490E008
:1055A0000E94621AEE24E39400E320E34BE45BE004
:1055B00070E060E080E590E00E94621ACA382FEF48
:1055C000D2070CF0BCCFE12C02E322E34BE856E11A
:1055D0006FEF7FEF8FEF9FEF0E94621AEE24E3944C
:1055E00000E320E34BE25AE070E060E090E080E00E
:1055F0000E94621ACA378FEFD8070CF00AC3E12C59
:1056000002E322E34BE856E16FE070E087E290E0CE
:105610000E94621AEE24E39400E320E34BE059E099
:1056200060E170E088E290E088CF2197D12CC12C16
:1056300094CF0E94B519EE24E39400E820E849EEE7
:1056400057E16AEF7FEF90E080E00E94621A1092CB
:1056500011031092100380E390E090930F03809366
:105660000E038DE891E00E94AA2084EA91E00E9456
:10567000AA2087EA91E00E94AA2084EA91E00E9491
:10568000AA200E94521A0E94491A88E00E943E1ADB
:10569000882361F081E08093520380913502C8171E
:1056A00068F48C2F0E948316CF5FF7CF84E00E94AE
:1056B0003E1A882341F310925203EFCF1092340226
:1056C00080915203811157C089E00E94F7178DE243
:1056D0009CE1909337028093360281E08093B70378
:1056E00088E08093D8031092DE031092DD0363E01C
:1056F00081E398E00E9460190E943518811133C03F
:1057000082E090E0909351038093500389E00E94DF
:10571000F7170E946020E8E3F2E0128A148A138AE5
:10572000759693E0EA30F907C1F78AE3282E81E005
:10573000382EC12CD12C90E8E92E90ECF92E812C3A
:10574000912C20E8A22E20E4B22E11E080910C03CF
:105750008823C1F010920C0380E090E0892BB1F314
:105760000E940000F2CF81E090E09093510380937B
:10577000500388E0CCCF81E090E090935103809378
:105780005003C7CF2091550380910D03922F981B92
:10579000892F90910D01891738F48F5F8917E0F6F2
:1057A00013BF889513BED8CF10930C0320930D031D
:1057B000EAE0F3E0808191810196808391830E94E9
:1057C000491A0E94B5194091500350915103EEE0DF
:1057D000F1E04130510509F04DC18681882309F47B
:1057E00046C12781308580819181820F931F9183EB
:1057F000808332872187843191053CF064817581F3
:10580000860F971F8D3691052CF031952195310922
:10581000308727833B962E163F06F9F68091520378
:10582000811133C14130510509F033C11093B703E1
:1058300089E08093D8031092DE031092DD0362E0CA
:1058400081E398E00E946019CEE0D1E09981892F30
:10585000990F990B0E948F198881998199270E942D
:105860008F199B81892F990F990B0E948F198A811B
:105870009B8199270E948F198C819D810E948F198D
:105880008E8190E00E948F198F81082E000C990B59
:105890000E948F192B9691E0CA33D907B9F60E945E
:1058A000351884E393E00E94D51F8091520388232A
:1058B00009F49AC18FB7F89440905503509056035D
:1058C00060905703709058038FBF8091320390917E
:1058D0003303181619060CF0DFC0019790933303B9
:1058E0008093320384E393E00E944B1E88E193E0AF
:1058F0000E944B1E0E94731D80914303882369F10F
:1059000080914403909145031816190634F580914F
:105910003403909135032091180330911903821BB1
:10592000930B07960F97C8F4809136039091370335
:1059300020911A0330911B03821B930B07960F973C
:1059400060F468E173E084E393E00E94472268E139
:1059500073E084E393E00E94311D80912703882344
:1059600069F180912803909129031816190634F5DE
:1059700080911803909119032091340330913503DD
:10598000821B930B07960F97C8F480911A0390918E
:105990001B032091360330913703821B930B07962C
:1059A0000F9760F464E373E088E193E00E9447227C
:1059B00064E373E088E193E00E94311D0E94041EBD
:1059C000CEE0D1E06A817B8101E022E04C818881D8
:1059D00099810E94611B2B962C163D0699F784E352
:1059E00093E00E94831B88E193E00E94831B0E9446
:1059F000D41D109211031092100310920F031092F5
:105A00000E038EEB91E00E94AA20809140039091BA
:105A100041030E94092180E590E090931103809357
:105A2000100310920F0310920E0383EC91E00E947A
:105A3000AA2080912403909125030E94092180913E
:105A40004003909141031816190644F480913603DF
:105A500090913703813491050CF4C9C082E090E045
:105A60000E94B7200E9460200E94521A75CE1286B2
:105A70001186D0CE8681811102C0128611863B9696
:105A800021E0EA33F207B1F7C9CE4130510509F4FC
:105A900008CF88E193E007CF0E94B42E24E630E0DF
:105AA00040E050E00E94262F663471058105910583
:105AB0000CF076C010921C0310921D0310921E036E
:105AC00010921F038091260381112FC0809114032F
:105AD00090911503A0911603B0911703481659062B
